:020000040800F2
:100000000000052055BE00088D4702083947020848
:100010009DBE000855470208714702080000000015
:10002000000000000000000000000000910701082F
:100030009DBE000800000000210801089DBE0008C8
:100040009DBE00089DBE00089DBE00089DBE000824
:100050009DBE00089DBE00089DBE00089DBE000814
:10006000CD2000089DBE00089DBE00089DBE000872
:100070009DBE00089DBE00089DBE00089DBE0008F4
:100080009DBE00089DBE00089DBE00089DBE0008E4
:100090009DBE00089DBE00089DBE00089DBE0008D4
:1000A0009DBE00089DBE00089DBE00089DBE0008C4
:1000B0009DBE00089DBE00089DBE00089DBE0008B4
:1000C0009DBE00089DBE00089DBE00089DBE0008A4
:1000D0009DBE000831C5000841C50008C98F010850
:1000E000092100089DBE00089DBE00089DBE0008B5
:1000F0005D2100089DBE00089DBE00089DBE000851
:100100009DBE00086D2100089DBE00089DBE000830
:100110009DBE00089DBE00089DBE00089DBE000853
:100120007D2100089DBE00089DBE00088D210008AD
:100130009DBE00089DBE00089DBE00089DBE000833
:100140009DBE0008BD4E01089DBE0008C9210008E3
:100150009DBE00089DBE000821C500089DBE000888
:100160009DBE00089DBE0008D92100089DBE000864
:100170009DBE00089DBE00089DBE00080000000056
:100180009DBE00089DBE00089DBE00089DBE0008E3
:100190009DBE00089DBE00089DBE00089DBE0008D3
:1001A0009DBE00089DBE00089DBE00080000000026
:1001B00010B5054C237833B9044B13B10448AFF3A1
:1001C00000800123237010BDA80B00200000000058
:1001D0000498020808B5034B1BB103490348AFF369
:1001E000008008BD00000000AC0B0020049802084D
:1001F00010F8012B11F8013B012A28BF9A42F7D0D1
:10020000D01A7047034613F8012B002AFBD1181AA5
:100210000138704781F0004102E000BF83F00043E5
:1002200030B54FEA41044FEA430594EA050F08BF91
:1002300090EA020F1FBF54EA000C55EA020C7FEA55
:10024000645C7FEA655C00F0E2804FEA5454D4EBD2
:100250005555B8BF6D420CDD2C4480EA020281EA9C
:10026000030382EA000083EA010180EA020281EAD4
:100270000303362D88BF30BD11F0004F4FEA013126
:100280004FF4801C4CEA113102D0404261EB410135
:1002900013F0004F4FEA03334CEA133302D05242BB
:1002A00063EB430394EA050F00F0A780A4F1010477
:1002B000D5F1200E0DDB02FA0EFC22FA05F28018B1
:1002C00041F1000103FA0EF2801843FA05F3594197
:1002D0000EE0A5F120050EF1200E012A03FA0EFC16
:1002E00028BF4CF0020C43FA05F3C01851EBE37140
:1002F00001F0004507D54FF0000EDCF1000C7EEB5D
:1003000000006EEB0101B1F5801F1BD3B1F5001F9A
:100310000CD349085FEA30004FEA3C0C04F10104B9
:100320004FEA445212F5800F80F09A80BCF1004FE2
:1003300008BF5FEA500C50F1000041EB045141EA64
:10034000050130BD5FEA4C0C404141EB0101013C2D
:1003500028BFB1F5801FE9D291F0000F04BF01461C
:100360000020B1FA81F308BF2033A3F10B03B3F1EE
:1003700020020CDA0C3208DD02F1140CC2F10C027E
:1003800001FA0CF021FA02F10CE002F11402D8BFDC
:10039000C2F1200C01FA02F120FA0CFCDCBF41EAA8
:1003A0000C019040E41AA2BF01EB0451294330BD77
:1003B0006FEA04041F3C1CDA0C340EDC04F1140454
:1003C000C4F1200220FA04F001FA02F340EA03002B
:1003D00021FA04F345EA030130BDC4F10C04C4F171
:1003E000200220FA02F001FA04F340EA0300294651
:1003F00030BD21FA04F0294630BD94F0000F83F49B
:10040000801306BF81F480110134013D4EE77FEA7D
:10041000645C18BF7FEA655C29D094EA050F08BFC9
:1004200090EA020F05D054EA000C04BF19461046AA
:1004300030BD91EA030F1EBF0021002030BD5FEAEE
:10044000545C05D14000494128BF41F0004130BD16
:1004500014F580043CBF01F5801130BD01F000456A
:1004600045F0FE4141F470014FF0000030BD7FEADD
:10047000645C1ABF194610467FEA655C1CBF0B46D8
:10048000024650EA013406BF52EA033591EA030FEF
:1004900041F4002130BD00BF90F0000F04BF0021E7
:1004A000704730B54FF4806404F132044FF000051A
:1004B0004FF0000150E700BF90F0000F04BF002193
:1004C000704730B54FF4806404F1320410F00045F9
:1004D00048BF40424FF000013EE700BF42004FEAF4
:1004E000E2014FEA31014FEA02701FBF12F07F4371
:1004F00093F07F4F81F06051704732F07F4208BF28
:10050000704793F07F4F04BF41F40021704730B52E
:100510004FF4607401F0004521F000411CE700BF7A
:1005200050EA010208BF704730B54FF000050AE0FD
:1005300050EA010208BF704730B511F0004502D5FE
:10054000404261EB41014FF4806404F132045FEA00
:10055000915C3FF4D8AE4FF003025FEADC0C18BFA9
:1005600003325FEADC0C18BF033202EBDC02C2F19B
:10057000200300FA03FC20FA02F001FA03FE40EA2D
:100580000E0021FA02F11444BDE600BF70B54FF031
:10059000FF0C4CF4E06C1CEA11541DBF1CEA13550F
:1005A00094EA0C0F95EA0C0F00F0DEF82C4481EA77
:1005B000030621EA4C5123EA4C5350EA013518BF97
:1005C00052EA033541F4801143F4801338D0A0FB84
:1005D00002CE4FF00005E1FB02E506F00042E0FB31
:1005E00003E54FF00006E1FB03569CF0000F18BF37
:1005F0004EF0010EA4F1FF04B6F5007F64F54074DF
:1006000004D25FEA4E0E6D4146EB060642EAC62171
:1006100041EA55514FEAC52040EA5E504FEACE2EDE
:10062000B4F1FD0C88BFBCF5E06F1ED8BEF1004FE1
:1006300008BF5FEA500E50F1000041EB045170BD5D
:1006400006F0004646EA010140EA020081EA0301A1
:10065000B4EB5C04C2BFD4EB0C0541EA045170BD9D
:1006600041F480114FF0000E013C00F3AB8014F117
:10067000360FDEBF002001F0004170BDC4F1000460
:10068000203C35DA0C341BDC04F11404C4F12005E1
:1006900000FA05F320FA04F001FA05F240EA02003C
:1006A00001F0004221F0004110EBD37021FA04F672
:1006B00042EB06015EEA430E08BF20EAD37070BD2C
:1006C000C4F10C04C4F1200500FA04F320FA05F08B
:1006D00001FA04F240EA020001F0004110EBD3708D
:1006E00041F100015EEA430E08BF20EAD37070BDFD
:1006F000C4F1200500FA05F24EEA020E20FA04F3D6
:1007000001FA05F243EA020321FA04F001F0004184
:1007100021FA04F220EA020000EBD3705EEA430EF5
:1007200008BF20EAD37070BD94F0000F0FD101F024
:100730000046400041EB010111F4801F08BF013C5D
:10074000F7D041EA060195F0000F18BF704703F09B
:100750000046520043EB030313F4801F08BF013D22
:10076000F7D043EA0603704794EA0C0F0CEA1355DE
:1007700018BF95EA0C0F0CD050EA410618BF52EA98
:100780004306D1D181EA030101F000414FF000009E
:1007900070BD50EA410606BF1046194652EA4306AC
:1007A00019D094EA0C0F02D150EA013613D195EA20
:1007B0000C0F05D152EA03361CBF104619460AD168
:1007C00081EA030101F0004141F0FE4141F4700172
:1007D0004FF0000070BD41F0FE4141F4780170BD62
:1007E00070B54FF0FF0C4CF4E06C1CEA11541DBFC7
:1007F0001CEA135594EA0C0F95EA0C0F00F0A7F8C9
:10080000A4EB050481EA030E52EA03354FEA0131F5
:1008100000F088804FEA03334FF0805545EA131308
:1008200043EA12634FEA022245EA111545EA1065D0
:100830004FEA00260EF000419D4208BF964244F167
:10084000FD0404F5407402D25B084FEA3202B61A86
:1008500065EB03055B084FEA32024FF480104FF45A
:10086000002CB6EB020E75EB030E22BFB61A7546CE
:1008700040EA0C005B084FEA3202B6EB020E75EB61
:10088000030E22BFB61A754640EA5C005B084FEAC9
:100890003202B6EB020E75EB030E22BFB61A754696
:1008A00040EA9C005B084FEA3202B6EB020E75EBA1
:1008B000030E22BFB61A754640EADC0055EA060E62
:1008C00018D04FEA051545EA16754FEA06164FEAA5
:1008D000C30343EA52734FEAC2025FEA1C1CC0D151
:1008E00011F4801F0BD141EA00014FF000004FF0DE
:1008F000004CB6E711F4801F04BF01430020B4F19F
:10090000FD0C88BFBCF5E06F3FF6AFAEB5EB030C56
:1009100004BFB6EB020C5FEA500C50F1000041EB53
:10092000045170BD0EF0004E4EEA113114EB5C0420
:10093000C2BFD4EB0C0541EA045170BD41F48011F3
:100940004FF0000E013C90E645EA060E8DE60CEAFB
:10095000135594EA0C0F08BF95EA0C0F3FF43BAF18
:1009600094EA0C0F0AD150EA01347FF434AF95EACF
:100970000C0F7FF425AF104619462CE795EA0C0FB3
:1009800006D152EA03353FF4FDAE1046194622E780
:1009900050EA410618BF52EA43067FF4C5AE50EA5A
:1009A00041047FF40DAF52EA43057FF4EBAE12E74A
:1009B0004FF0FF3C06E000BF4FF0010C02E000BF2B
:1009C0004FF0010C4DF804CD4FEA410C7FEA6C5C0E
:1009D0004FEA430C18BF7FEA6C5C1BD001B050EAB1
:1009E000410C0CBF52EA430C91EA030F02BF90EA9C
:1009F000020F0020704710F1000F91EA030F58BF5B
:100A0000994208BF90422CBFD8176FEAE37040F0BC
:100A1000010070474FEA410C7FEA6C5C02D150EA5A
:100A2000013C07D14FEA430C7FEA6C5CD6D152EA15
:100A3000033CD3D05DF8040B704700BF84461046DA
:100A400062468C461946634600E000BF01B5FFF7D9
:100A5000B7FF002848BF10F1000F01BD4DF808EDA9
:100A6000FFF7F4FF0CBF012000205DF808FB00BF7A
:100A70004DF808EDFFF7EAFF34BF012000205DF8D4
:100A800008FB00BF4DF808EDFFF7E0FF94BF012021
:100A900000205DF808FB00BF4DF808EDFFF7CEFF22
:100AA00094BF012000205DF808FB00BF4DF808ED61
:100AB000FFF7C4FF34BF012000205DF808FB00BF32
:100AC0004FEA410C7FEA6C5C02D150EA013C0AD14A
:100AD0004FEA430C7FEA6C5C02D152EA033C02D13C
:100AE0004FF0000070474FF0010070474FEA41029D
:100AF00012F5001215D211D56FF47873B3EB625270
:100B000012D94FEAC12343F0004343EA505311F096
:100B1000004F23FA02F018BF404270474FF0000028
:100B2000704750EA013005D111F0004008BF6FF066
:100B3000004070474FF00000704700BF4A0011D2DC
:100B400012F5001211D20DD56FF47873B3EB625227
:100B50000ED44FEAC12343F0004343EA505323FA33
:100B600002F070474FF00000704750EA013002D1A8
:100B70004FF0FF3070474FF0000070474FEA4102DE
:100B8000B2F1E04324BFB3F5001CDCF1FE5C0DD9EB
:100B900001F0004C4FEAC0024CEA5070B2F1004F35
:100BA00040EB830008BF20F00100704711F0804F38
:100BB00021D113F13872BCBF01F00040704741F4FD
:100BC00080114FEA5252C2F11802C2F1200C10FA01
:100BD0000CF320FA02F018BF40F001004FEAC123E5
:100BE0004FEAD32303FA0CFC40EA0C0023FA02F389
:100BF0004FEA4303CCE77FEA625307D150EA01335F
:100C00001EBF4FF0FE4040F44000704701F000402E
:100C100040F0FE4040F40000704700BF80F000400C
:100C200002E000BF81F0004142001FBF5FEA4103C4
:100C300092EA030F7FEA226C7FEA236C6AD04FEAC4
:100C40001262D2EB1363C1BFD21841404840414009
:100C5000B8BF5B42192B88BF704710F0004F40F4BB
:100C6000000020F07F4018BF404211F0004F41F4D7
:100C7000000121F07F4118BF494292EA030F3FD0A3
:100C8000A2F1010241FA03FC10EB0C00C3F12003B6
:100C900001FA03F100F0004302D5494260EB400045
:100CA000B0F5000F13D3B0F1807F06D340084FEAB0
:100CB000310102F10102FE2A51D2B1F1004F40EBA5
:100CC000C25008BF20F0010040EA0300704749000D
:100CD00040EB0000013A28BFB0F5000FEDD2B0FAAA
:100CE00080FCACF1080CB2EB0C0200FA0CF0AABFCD
:100CF00000EBC25052421843BCBFD040184370476B
:100D000092F0000F81F4000106BF80F40000013270
:100D1000013BB5E74FEA41037FEA226C18BF7FEA47
:100D2000236C21D092EA030F04D092F0000F08BF89
:100D30000846704790EA010F1CBF0020704712F070
:100D40007F4F04D1400028BF40F00040704712F1AF
:100D500000723CBF00F50000704700F0004343F014
:100D6000FE4040F4000070477FEA226216BF08464A
:100D70007FEA23630146420206BF5FEA412390EA0D
:100D8000010F40F4800070474FF0000304E000BF03
:100D900010F0004348BF40425FEA000C08BF7047B4
:100DA00043F0964301464FF000001CE050EA010278
:100DB00008BF70474FF000030AE000BF50EA01028D
:100DC00008BF704711F0004302D5404261EB41017A
:100DD0005FEA010C02BF84460146002043F0B6439F
:100DE00008BFA3F18053A3F50003BCFA8CF2083AC4
:100DF000A3EBC25310DB01FA02FC634400FA02FCCD
:100E0000C2F12002BCF1004F20FA02F243EB0200D3
:100E100008BF20F00100704702F1200201FA02FC35
:100E2000C2F1200250EA4C0021FA02F243EB020028
:100E300008BF20EADC70704753B94AB9002908BFDF
:100E400000281CBF4FF0FF314FF0FF3000F06EB9AB
:100E5000ADF1080C6DE904CE00F006F8DDF804E011
:100E6000DDE9022304B070472DE9F047089D0446F0
:100E70008C46002B40F083808A42174647D9B2FA4D
:100E800082F242B1C2F1200024FA00F09140974072
:100E900040EA010C94404FEA1748230CBCFBF8F6DB
:100EA0001FFA87FE08FB16C143EA014306FB0EF159
:100EB000994209D9FB1806F1FF3080F01981994257
:100EC00040F21681023E3B445B1AA4B2B3FBF8F039
:100ED00008FB103344EA034400FB0EFEA64509D983
:100EE0003C1900F1FF3380F00581A64540F20281F4
:100EF00002383C4440EA0640A4EB0E0400261DB133
:100F0000D4400023C5E900433146BDE8F08702B96B
:100F1000FFDEB2FA82F2002A50D1CB1B4FEA174E05
:100F20001FFA87F80126B3FBFEFC210C0EFB1C33D5
:100F300041EA034108FB0CF38B4207D979180CF105
:100F4000FF3002D28B4200F2E9808446C91AA3B274
:100F5000B1FBFEF00EFB101143EA014408FB00F860
:100F6000A04507D93C1900F1FF3302D2A04500F299
:100F7000D9801846A4EB080440EA0C40BFE78B4236
:100F800009D9002D00F0B1800026C5E900013046E6
:100F90003146BDE8F087B3FA83F6002E4AD18B4282
:100FA00002D3824200F2B880841A61EB030101206F
:100FB0008C46002DA8D0C5E9004CA5E7C2F120035E
:100FC00020FA03F6974001FA02F04FEA174ED94093
:100FD0003043030CB1FBFEF61FFA87F80EFB161127
:100FE00043EA014306FB08F1994204FA02F409D9E5
:100FF000FB1806F1FF3C80F08D80994240F28A8018
:10100000023E3B445B1A81B2B3FBFEF00EFB103391
:1010100041EA034100FB08F38B4207D9791800F13C
:10102000FF3C73D28B4271D902383944CB1A40EA63
:10103000064678E7C6F1200C03FA06F422FA0CF310
:101040001C4320FA0CF701FA06F34FEA144E21FA7A
:101050000CF11F433B0CB1FBFEF91FFA84F80EFBA9
:10106000191143EA014109FB08FA8A4502FA06F21E
:1010700000FA06F308D9611809F1FF3048D28A4511
:1010800046D9A9F102092144A1EB0A01BFB2B1FB83
:10109000FEF00EFB101147EA014700FB08F8B845C7
:1010A00007D9E71900F1FF312ED2B8452CD9023803
:1010B000274440EA0940A7EB0807A0FB02894F45F7
:1010C000C64649461AD317D05DB1B3EB0E0267EBA3
:1010D000010707FA0CFCF2404CEA0202F740C5E9AE
:1010E000002700263146BDE8F0872E4628460BE74C
:1010F0000646E9E61846FDE64345E5D2B8EB020EA2
:1011000069EB04010138DFE70846D2E760468DE766
:101110008146B9E7664675E730464AE7ACF1020C0E
:10112000394413E702383C4424E700BF704700BF4E
:1011300008B50B46024A0421024813F05DFC08BDC5
:10114000949802080007002008B528B1026842B14F
:1011500092684068904708BD78460022714623F0A7
:101160004FFA7846714623F04BFA000008B5044B5D
:101170001B7813B9034B186808BD0DF07FFEFBE721
:10118000C40B0020FC93042038B504460A4B1B789E
:1011900013B10DF0E9FF38BDFFF7E8FF0546B4F1E4
:1011A000FF3F02D0054B1B781C44FFF7DFFF431BBA
:1011B000A342FAD3EFE700BFC40B0020D8030020FE
:1011C00010B574467A4B01221A7000F075FF794809
:1011D00019F0A6F8784819F0A3F8784819F012FA2F
:1011E000774819F00FFA774819F00CFA764B1B681C
:1011F000DBB11B680121744A5068984732200DF01A
:10120000B3FF724818F0FCFF012813D0704A022186
:10121000704813F0F1FB2221022012F02BFC6E4AE1
:1012200002216C4813F0E8FB10BD784600222146ED
:1012300023F0E6F9694B1B68002B00F099801B68CE
:101240000121664A506898470128E4D1644B1B6825
:10125000002B00F092801B680121614A506898477A
:101260000128D8D15F4B1B68002B00F08B801B68D6
:1012700001215C4A506898470128CCD15A4B1B6821
:10128000002B00F084801B680121574A5068984762
:101290000128C0D100215548FFF756FF0128BAD1D7
:1012A00000215348FFF750FF0128B4D100215148D5
:1012B000FFF74AFF0128AED100214F48FFF744FF56
:1012C0000128A8D100214D48FFF73EFF0128A2D1F7
:1012D00000214248FFF738FF01289CD100214048F7
:1012E000FFF732FF012896D100213E48FFF72CFF7F
:1012F000012890D100213C48FFF726FF01288AD120
:1013000000213F48FFF720FF012884D100213D48FC
:10131000FFF71AFF01287FF47EAF00213A48FFF75C
:1013200013FF01287FF477AF00213848FFF70CFF47
:1013300001287FF470AF00213548FFF705FF012831
:101340007FF469AF00213348FFF7FEFE01287FF4E8
:1013500062AF00213048FFF7F7FE01287FF45BAF52
:10136000244B1B68C3B978460022214623F048F974
:1013700078460022214623F043F978460022214690
:1013800023F03EF978460022214623F039F97846C9
:101390000022214623F034F9DB6800221F4915485A
:1013A000406898470021022012F064FB3CE700BF30
:1013B000C40B002004000020140000207400002052
:1013C00084000020940000200C0200202400002053
:1013D000A898020800070020CC9802087C01002091
:1013E000840100208C010020940100205401002081
:1013F0005C010020640100206C01002074010020C9
:101400009C010020A4010020AC010020B4010020B8
:10141000BC010020C4010020CC01002031110008D3
:1014200010B582B074461C4B1B682BB35B680DF182
:101430000701194A50689847184B1B680BB35B6843
:101440000DF10601154A50689847154B1B68EBB122
:101450005B680DF10501124A506898479DF8063007
:101460009DF8070040EA430040B29DF8053040EA8D
:101470008300C0B202B010BD78460022714623F04E
:10148000BFF878460022214623F0BAF878460022B9
:10149000214623F0B5F800BF140100201C010020F4
:1014A0002401002030B583B07546154B1B68ABB1E5
:1014B0005B680DF10701124A5068984700F001047B
:1014C000104B1B687BB15B680DF106010D4A50683B
:1014D000984704420CD1FF2003B030BD784600226B
:1014E000714623F08DF878460022294623F088F8CB
:1014F0009DF806309DF8070040EA4300C0B2EBE7D4
:101500006C0100207401002000B58BB0002307930C
:10151000089309930193029303930493059306930D
:101520001F48204A02604FF4402242608360C3603B
:10153000036104224261037643760122C26180F88E
:1015400020308362C36280F83030436380F83830E3
:1015500001F048F8D0B90023079307A9104801F01B
:1015600001FFB0B9104B01930623029300230393AC
:101570007F2204920422059206930DEB0201084893
:1015800001F0BAF940B90BB05DF804FB00F0C8FBFC
:10159000E1E700F0C5FBE5E700F0C2FBF3E700BFC1
:1015A000DC8F0420000004500080F03E00B589B0BC
:1015B0000023039304930593069307930268134B48
:1015C0009A4202D009B05DF804FB03F17043A3F521
:1015D000F833DA6C42F40052DA64DA6C02F4005246
:1015E0000192019ADA6C42F00202DA64DB6C03F0D9
:1015F00002030293029B032303930B230493002310
:10160000059303A9024802F037FBDBE70000045012
:101610000004004808B50268064B9A4200D008BD95
:10162000054AD36C23F40053D3640321034802F02A
:1016300001FCF4E7000004500010024000040048E0
:1016400000B583B00E4B9A6C42F002029A649B6C18
:1016500003F002030193019B00220721382001F0CF
:101660002BFF382001F05CFF002207213B2001F016
:1016700023FF3B2001F054FF03B05DF804FB00BFE3
:10168000001002402DE9F04F91B000240D940E940B
:101690000F940C94BD4BDA6C42F01002DA64DA6CF1
:1016A00002F010020692069ADA6C42F00402DA6442
:1016B000DA6C02F004020592059ADA6C42F001023B
:1016C000DA64DA6C02F001020492049ADA6C42F0F5
:1016D0000202DA64DA6C02F002020392039ADA6C14
:1016E00042F00802DA64DA6C02F008020292029A0E
:1016F000DA6C42F08002DA64DB6C03F08003019361
:10170000019BDFF8A0824FF60F43C8F82830DFF8BE
:1017100090A24FF0C80BCAF828B04FF09049182299
:10172000C9F828209A4F4FF44062BA62994E4CF2A1
:101730000162B26207930125089509940A940B94FB
:1017400007A9404607F07AFACDF81CB0089509942D
:101750000A940B9407A9504607F070FA07230793E1
:1017600008940B9407A9484607F068FA18230793D2
:10177000089509940A940B9407A9484607F05EFA65
:101780004FF40073079308940B9407A9404607F0A1
:1017900055FA4FF440630793089509940A940B9403
:1017A00007A9384607F04AFA4FF410430793089404
:1017B0000B9407A9384607F041FA4FF48853079372
:1017C00008940B9407A9304607F038FA4CF20163ED
:1017D0000793089509940A940B9407A9304607F0DB
:1017E0002DFA0823079308940B9407A96A4807F079
:1017F00025FA6A4B9A6822F470624FF4706393FA88
:10180000A3F3002B00F01E81B3FA83F3022101FA47
:1018100003F31343614A9360526922F0F002F0230C
:1018200093FAA3F3002B00F00F81B3FA83F303269E
:1018300006FA03F31343594A5361536923F470437F
:101840004FF4704191FAA1F1536104240D940025E5
:101850000E9501278DF83C708DF83D5002238DF8D0
:101860003E300DA807F01CF94FF400530D930E9570
:101870008DF83C708DF83D508DF83E600DA807F056
:101880000FF94FF400430D930E958DF83C708DF8D1
:101890003D508DF83E600DA807F002F9404BDB6823
:1018A00094FAA4F4002C00F0D180B4FA84F464001B
:1018B000032202FA04F423EA0404042393FAA3F3B0
:1018C000374BDC6003F58063DA684FF4005393FA1A
:1018D000A3F3002B00F0BC80B3FA83F35B00032179
:1018E00001FA03F322EA03034FF4005292FAA2F240
:1018F000284AD3604FF09043DA684FF4004393FADC
:10190000A3F3002B00F0A680B3FA83F35B0003215E
:1019100001FA03F322EA03034FF4004292FAA2F21F
:101920004FF09042D3601E4B1A68042393FAA3F33E
:10193000002B00F09180B3FA83F35B00032101FADE
:1019400003F322EA0303042292FAA2F2144A136078
:10195000104B1A684FF4005393FAA3F3002B7DD079
:10196000B3FA83F35B00032101FA03F322EA0303D2
:101970004FF4005292FAA2F2064A13604FF09043DD
:101980001A684FF4004393FAA3F30DE000100240ED
:1019900000040048000C0048001C00480000014002
:1019A0000008004800100048002B59D0B3FA83F318
:1019B0005B00032101FA03F322EA03034FF4004220
:1019C00092FAA2F24FF090421360284BDA68C2F309
:1019D0000222C2F10703042B28BF04231946131D5A
:1019E000062B3FD9033A4FF0FF338B40DB4303F024
:1019F000060393401B01DBB21D4A82F808334FF403
:101A000080731360194BDA68C2F30222C2F1070334
:101A1000042B28BF04231946131D062B24D9033A8F
:101A20004FF0FF338B40DB4303F0060393401B0171
:101A3000DBB20F4A82F828334FF48073536011B041
:101A4000BDE8F08F2023E1E62023F0E620242EE7F6
:101A5000202343E7202359E720236EE7202381E753
:101A60002023A5E70022BEE70022D9E700ED00E031
:101A700000E100E008B51248124B0360124B4360CE
:101A8000002383600122C260036143618361C361FB
:101A9000036202F0A5FB50B90021094802F030FEB4
:101AA00040B90021064802F059FE30B908BD00F0E7
:101AB00037F9F1E700F034F9F3E700F031F9F5E731
:101AC0004490042000540040EC9C901008B512484B
:101AD000124B0360124B4360002383600122C260FB
:101AE000036143618361C361036202F079FB50B912
:101AF0000021094802F004FE40B90021064802F026
:101B00002DFE30B908BD00F00BF9F1E700F008F93F
:101B1000F3E700F005F9F5E7909004200058004045
:101B2000EC9C901010B58AB00023059306930793A0
:101B3000089309930368274A934204D0264A9342A4
:101B400024D00AB010BD254CE36C43F00203E364DB
:101B5000E36C03F002030193019B4FF44073059380
:101B60001223069301230793032308930423099365
:101B700005A91B4802F080F8A36D43F40013A36588
:101B8000A36D03F400130293029BDAE7134CE36C9A
:101B900043F00203E364E36C03F002030393039B4B
:101BA0004FF4C043059312230693012307930323A5
:101BB00008930423099305A9094802F05DF8A36D71
:101BC00043F48003A365A36D03F480030493049B93
:101BD000B7E700BF0054004000580040001002402A
:101BE0000004004808B50848084B0360062343601A
:101BF00040F6FF73C360836002F0DCFD00B908BDEE
:101C000000F08EF8FBE700BFDC90042000300040BD
:101C10002DE9F041BAB04422002129A827F098FB11
:101C20000024249425942694279428948C222146D9
:101C300001A827F08DFB03F039FB314AD2F8903030
:101C400023F01803C2F890301E23299301252B9509
:101C50004FF48078CDF8B08040232D932E952F95AA
:101C60003094602331930226339634953595282796
:101C7000369737963896399629A803F019FC0F2322
:101C8000249303232593269427942894042124A89D
:101C900003F056FF1B4B01930F94109411944FF4D3
:101CA00000631493159416944FF480031B934FF024
:101CB00080532093CDF88C804FF080631D931E934A
:101CC00009950A950B970D230C930D964FF48033CD
:101CD0000E9302950395182304930596069607968E
:101CE0004FF08873089301A804F012FA4FF40070C3
:101CF00003F0ECFA05F002F83AB0BDE8F08100BF5D
:101D000000100240E7680A0008B50268034B9A42D7
:101D100000D008BD00F05AFCFBE700BF00340140D2
:101D2000704700002DE9F04188B00023039304932D
:101D30000593069307930268334B9A4202D008B08A
:101D4000BDE8F081044603F568431A6E42F48062F0
:101D50001A661A6E02F480620092009ADA6C42F0FF
:101D60000402DA64DA6C02F004020192019ADA6C7D
:101D700042F00802DA64DB6C03F008030293029B72
:101D80004FF4F85303934FF00208CDF81080012769
:101D90000597032606960C2507950DEB05011B48B4
:101DA00001F06AFF04230393CDF81080059706968F
:101DB00007950DEB0501164801F05EFF1548164B1F
:101DC00003600723436000238360C36080220261B5
:101DD0004FF4007242614FF400628261C36103629A
:101DE00001F0C4FB60B90B4B23649C62E3630022E7
:101DF0000621312001F060FB312001F091FB9EE7CC
:101E0000FFF78EFFEFE700BF002801400008004801
:101E1000000C00483C9204204404024008B51048DD
:101E2000104B03604FF482734360002383604FF4D0
:101E3000E062C260036143614FF400728261282254
:101E4000C2610362436283620722C26203630823A2
:101E5000436306F0C9F800B908BDFFF761FFFBE76F
:101E60004C9304200030014008B51048104B03602B
:101E70004FF482734360002383604FF4E062C260DA
:101E8000036143614FF4007282610822C261036200
:101E9000436283620721C1620363426306F0A4F8D0
:101EA00000B908BDFFF73CFFFBE700BF84920420A8
:101EB0000038004008B51048104B03604FF482739F
:101EC0004360002383604FF4E062C26003614361BA
:101ED0004FF4007282612822C2610362436283620E
:101EE0000722C26203630823436306F07DF800B94A
:101EF00008BDFFF715FFFBE7E8920420003C004017
:101F000000B58DB000230793089309930A930B93B0
:101F10000368394A934208D0384A934228D0384A55
:101F2000934247D00DB05DF804FB364B1A6E42F475
:101F300080521A661A6E02F480520192019ADA6C8B
:101F400042F00102DA64DB6C03F001030293029BAE
:101F5000E0230793022308930023099303230A93A2
:101F600005230B9307A94FF0904001F085FED9E7B8
:101F7000244B9A6D42F480429A659A6D02F4804235
:101F80000392039ADA6C42F00802DA64DB6C03F025
:101F900008030493049B1A23079302230893002346
:101FA000099303230A9305230B9307A9164801F00D
:101FB00063FEB7E7134B9A6D42F400429A659A6D3F
:101FC00002F400420592059ADA6C42F00202DA64E9
:101FD000DB6C03F002030693069B3823079302236E
:101FE00008930023099303230A9306230B9307A95D
:101FF000064801F041FE95E70030014000380040FE
:10200000003C004000100240000C00480004004862
:1020100082B00A4B1A6E42F001021A661A6E02F082
:1020200001020092009A9A6D42F080529A659B6D6F
:1020300003F080530193019B02B0704700100240EF
:1020400000B589B0014600222C2001F035FA2C2081
:1020500001F066FA144B1A6E42F400521A661B6EB7
:1020600003F400530193019B02A903A803F040FE6F
:1020700003F02CFE0D4BA3FB00239B0C013B0C48F3
:102080000C4A026040F2E732C26043600023036101
:10209000836006F0D1FC18B1012009B05DF804FBA3
:1020A000034806F04DFBF8E70010024083DE1B43B7
:1020B000B093042000340140034B1A68D36823F026
:1020C0000103D360704700BFB093042008B50B4BE9
:1020D0005B6913F0040F00D108BD084B04225A615C
:1020E000074818F0BBF80028F6D0064B4FF0805296
:1020F0001A60BFF34F8FBFF36F8FEDE7000401400D
:102100002400002004ED00E010B5124B5B6913F4CD
:10211000005F0FD100240F4B5B6913F4004F11D106
:102120003CB10D4B4FF080521A60BFF34F8FBFF39D
:102130006F8F10BD074B4FF400525A6113F052F8E5
:102140000446E8E7034B4FF400425A6114F01EF9CD
:102150000443E5E70004014004ED00E008B502484F
:1021600006F038FB08BD00BFB093042008B5024854
:1021700005F00EFD08BD00BFB891042008B5024867
:1021800001F05CFB08BD00BFEC90042008B50D4BCE
:102190001B6B812B10D00B4B1B6B822B0CD0094B74
:1021A0001B6B902B03D0074B1B6BA02B08D1054B4F
:1021B000D86B01F043FB03E0024B186C01F03EFBCF
:1021C00008BD00BFB891042008B5024802F07CFCAD
:1021D00008BD00BFD0A8042008B5024804F0FAFDED
:1021E00008BD00BF349104200F49D1F8883043F472
:1021F0007003C1F888300D4B1A6842F001021A6072
:10220000002098601A6822F0A85222F410221A6066
:102210004FF48052DA601A6822F480221A609861C2
:102220004FF000638B60704700ED00E0001002404B
:1022300010B58EB00023089309930A930B930C9367
:102240000D932A4AD16D41F00101D165D16D01F0A4
:10225000010101910199D16C41F00401D164D26C6A
:1022600002F004020092009A0322029202210391DA
:10227000049205930693082307930DEB03011C4872
:1022800006F0DCFC1B4BDA68C2F30222C2F1070342
:10229000042B28BF04231946131D062B23D9033A08
:1022A0004FF0FF338B40DB4303F0080393401B01E7
:1022B000DBB2114A82F84633402393604FF4165341
:1022C0000893002309930A930B930C220C920D930D
:1022D0000A4C08A9204606F06DFD236843F001036F
:1022E00023600EB010BD0022DAE700BF00100240EC
:1022F0000008004800ED00E000E100E00080004040
:1023000010B590B0002309930A930B930C930D938F
:102310000E930F932E4A116E41F480411166116E97
:1023200001F4804102910299D16C41F00201D16423
:10233000D26C02F002020192019AC02203920222A0
:10234000049203220592069307930723089303A997
:10235000204806F073FC204BDA68C2F30222C2F177
:102360000703042B28BF04231946131D062B2CD961
:10237000033A4FF0FF338B40DB4303F008039340F5
:102380001B01DBB2154A82F82533202353604FF43A
:102390009643099300230A930B930C930C220D92FE
:1023A0000E930F930E4C09A9204607F08DFC63682D
:1023B00023F490436360A36823F02A03A360236897
:1023C00043F00103236010B010BD0022D1E700BF2D
:1023D000001002400004004800ED00E000E100E0D1
:1023E0000038014010B590B0002309930A930B9375
:1023F0000C930D930E930F932E4A916D41F400317F
:102400009165916D01F4003102910299D16C41F016
:102410000801D164D26C02F008020192019A602294
:102420000392022204920322059206930793072344
:10243000089303A9204806F001FC204BDA68C2F398
:102440000222C2F10703042B28BF04231946131DDF
:10245000062B2CD9033A4FF0FF338B40DB4303F0BC
:10246000080393401B01DBB2154A82F82633402350
:1024700053604FF41653099300230A930B930C9364
:102480000C220D920E930F930E4C09A9204607F0D3
:102490001BFC636823F490436360A36823F02A0362
:1024A000A360236843F00103236010B010BD002235
:1024B000D1E700BF00100240000C004800ED00E032
:1024C00000E100E00044004010B590B00023099303
:1024D0000A930B930C930D930E930F932E4A916DC9
:1024E00041F480219165916D01F48021029102995E
:1024F000D16C41F00401D164D26C02F0040201926B
:10250000019A30220392022204920322059206933A
:1025100007930723089303A9204806F08FFB204B5D
:10252000DA68C2F30222C2F10703042B28BF042396
:102530001946131D062B2CD9033A4FF0FF338B405D
:10254000DB4303F0080393401B01DBB2154A82F81A
:102550002733802353604FF4E133099300230A9318
:102560000B930C930C220D920E930F930E4C09A912
:10257000204607F0A9FB636823F490436360A368D7
:1025800023F02A03A360236843F00103236010B003
:1025900010BD0022D1E700BF001002400008004833
:1025A00000ED00E000E100E00048004010B503202D
:1025B00000F070FF0020FFF743FD10B1012420461A
:1025C00010BD0446FFF724FDF9E70000034B1B781C
:1025D000034A11680B441360704700BFD803002002
:1025E000FC93042030B583B000230193002800F051
:1025F000EA800446836D03B323689A6812F0005F93
:1026000005D09A6822F0204222F03F029A602268A8
:10261000936813F0805F1DD1936823F0104323F07B
:102620003F0343F080539360684B1B689B09684AE3
:10263000A2FB03239B09019309E0FEF7B7FF0023E8
:10264000E36584F85430D7E7019B013B0193019B7C
:10265000002BF9D12268936813F0805F09D1A36D34
:1026600043F01003A365E36D43F00103E36501202C
:1026700000E00020936813F0040300D00123A16D53
:1026800011F0100F40F09880002B40F09580A36D62
:1026900023F4817343F00203A365936813F0010FE1
:1026A0001BD14C4B9A6812F0010200D001224A4B18
:1026B0009B6813F0010300D001231343474A92683B
:1026C00012F0010200D00122134306D1636844498D
:1026D0008A6822F47C1213438B60627E636B43EA48
:1026E0004233E2681343A268134394F8202043EA7C
:1026F0000243012A40D0A26A22B102F47072E16A58
:102700000A4313432168CD68364A2A401343CB60FD
:1027100021688B6813F0040300D001238A6812F04B
:10272000080200D00122C3B9BAB9E36C227E43EAA1
:10273000823394F8302043EA4202CB6823F480438A
:1027400023F006031343CB6094F83830012B18D0E4
:102750002268136923F0010313612369012B22D03E
:102760002268136B23F00F031363A36D23F003039D
:1027700043F00103A36524E0626A013A43EA42435D
:10278000B9E721680B6923F4FF6323F00403E26BCC
:10279000256C2A43656C2A43A56C2A43134343F0F6
:1027A00001030B61D9E721680B6B23F00F03E2698A
:1027B000013A13430B63D8E7A36D43F01003A365FD
:1027C000012003B030BD0120FBE700BFD40300208F
:1027D000632D3E0500000450000104500002045027
:1027E0000003045007C0F0FF2DE9F04104460D46F8
:1027F0003D4B9F6807F01F074669082E11D057B15F
:10280000052F08D0092F06D0374B9B6813F4604F73
:1028100028D1042605E02368DB6813F0010F1BD1E3
:102820000426FEF7A3FC804623681A6832421FD1B3
:10283000B5F1FF3FF8D0FEF799FCA0EB0800A842E5
:1028400001D8002DF0D1A36D43F00403A36500234C
:1028500084F85430032042E0A36D43F02003A365C5
:1028600001203CE0836D43F020038365012036E0C6
:10287000A26D42F40072A265DA6812F4406F11D1C1
:10288000627E7AB91A6812F0080F0BD0A26D22F49A
:102890008072A265A26D12F4805F03D1A26D42F036
:1028A0000102A265114A934209D01A46934209D007
:1028B00047B1052F06D0092F04D0D26803E0A2F556
:1028C0008072F3E7DA68082E06D012F4804F08D140
:1028D0000C221A60002002E008221A600020BDE8E5
:1028E000F0810020FBE700BF00030450000104500A
:1028F0000368186C70470000F0B482B000220192A7
:1029000090F85420012A00F055820346012280F8F5
:1029100054200268926812F0040F0AD0826D42F0CF
:10292000200282650120002283F8542002B0F0BC0E
:1029300070474A68052A09D8023A032A00F29780AC
:10294000DFE802F0028B8E910C224A601E684D680F
:102950000C6830362A0A920002F00C02B05805F0DA
:102960001F051F27AF4020EA0700C4F38464AC4072
:102970002043B0501C68A26812F0040200D001226B
:10298000A06810F0080000D00120002A32D188BBD6
:102990008868B0F1004F6DD00E681434720E92004A
:1029A00002F00402A558C6F304560727B74025EAEB
:1029B0000705B0402843A0501868426922F0004241
:1029C00042614C691868C268C2F3C102520004FA3D
:1029D00002F20D69042D62D00E68603050F8257047
:1029E000B04C3C4006F0F8463243144344F00044F7
:1029F00040F825401868826812F0010F16D10A6865
:102A0000CD68D0F8B040C2F3120624EA060405F0FF
:102A10001806A54DF5402A40C2F312022243C0F821
:102A2000B020C868A14A904200F0A1800A68A0497D
:102A30000A4200F0BB819F49896801F0E0749E481A
:102A4000824200F05E819D48824200F084819C4871
:102A5000824200F09881002065E712224A6075E703
:102A600018224A6072E74FF480724A606EE70622CD
:102A70004A606BE708681434420E920002F00402C8
:102A8000A558C0F30450072606FA00F025EA000016
:102A9000A0501868426942F00042426191E7026E1C
:102AA000046EC4F384640A68C2F3120585BBC2F3E2
:102AB0008462944234D01C68626E606EC0F384609D
:102AC0000A68C2F3120585BBC2F38462904234D017
:102AD0001C68A26EA06EC0F384600A68C2F312057F
:102AE00085BBC2F38462904234D01C68E26EE06E13
:102AF000C0F384600A68C2F3120585BBC2F3846226
:102B000090427FF477AFE26E22F00042E26671E716
:102B100092FAA2F212B1B2FA82F2CAE72022C8E710
:102B2000026E22F000420266C5E792FAA2F212B1EA
:102B3000B2FA82F2CAE72022C8E7626E22F00042AF
:102B40006266C5E792FAA2F212B1B2FA82F2CAE75D
:102B50002022C8E7A26E22F00042A266C5E792FAE0
:102B6000A2F212B1B2FA82F2CAE72022C8E71D68C7
:102B70000A68C2F31206002E35D1900E013000F023
:102B80001F0009288CBF00200120002862D0002EE1
:102B900038D1940E0134A40604F0F844002E3DD13F
:102BA000900E013000F01F070120B8400443002EB2
:102BB00042D1920E013202F01F0202EB42021205D4
:102BC00022438C681435500E800000F004002E580B
:102BD000C2F304520727974026EA070604FA02F2D6
:102BE00032432A5022E792FAA2F048B1B0FA80F0BC
:102BF000013000F01F0009288CBF00200120C4E72D
:102C00002020F5E792FAA2F434B1B4FA84F4013446
:102C1000A40604F0F844C1E72024F8E792FAA2F0F1
:102C200040B1B0FA80F0013000F01F00012707FA30
:102C300000F0BBE72020F6E792FAA2F242B1B2FA26
:102C400082F2013202F01F0202EB42021205B7E7E4
:102C50002022F6E7CEB9940E0134A40604F0F8441D
:102C600086BB900E013000F01F070120B8400443DE
:102C7000B6BB900E013000F01F0000EB40021E3A80
:102C8000120542F0007222439BE792FAA2F434B19B
:102C9000B4FA84F40134A40604F0F844E0E72024F4
:102CA000F8E700BF00F0FF03FFFF070000007F40D0
:102CB0000000088000030450000052C7000084CBCD
:102CC0000100008092FAA2F040B1B0FA80F0013029
:102CD00000F01F00012707FA00F0C8E72020F6E700
:102CE00092FAA2F25AB1B2FA82F0013000F01F005B
:102CF00000EB40021E3A120542F00072C3E72020AA
:102D0000F3E711F4000F7FF49EAE1A682A498A4255
:102D100005D001F500718A4201D0002003E644F499
:102D2000000426498A6822F0E07214438C60244A29
:102D3000126892092349A1FB0212920902EB420296
:102D40009200019202E0019A013A0192019A002A4E
:102D5000F9D10020E7E511F0807F7FF478AE1A68A2
:102D600015498A4205D001F500718A4201D0002040
:102D7000D9E544F080721148816821F0E0710A437E
:102D800082600020CFE511F4800F11D119680A4A42
:102D9000914201D00020C6E544F4800207488168D2
:102DA00021F0E0710A4382600020BCE50020BAE512
:102DB0000020B8E50220B9E50000045000030450EB
:102DC000D4030020632D3E0570B5044603689A685D
:102DD00012F0040200D00122986810F0080000D020
:102DE00001200AB9002867D0DA6812F0007F04D009
:102DF000208B40F2011290424AD0022910D0236861
:102E00009A6812F0040F0BD09A6812F0020F07D1E3
:102E10009A6822F0004222F03F0242F010029A60CB
:102E2000012910D023689A6812F0080F0BD09A6815
:102E300012F0020F07D19A6822F0004222F03F02FE
:102E400042F020029A60022930D0032930D10C26AA
:102E5000FEF78CF9054623689B6833422AD0FEF7BB
:102E600085F9431B052BF6D9A36D43F01003A36529
:102E7000E36D43F00103E36501201CE0A36D43F023
:102E80001003A365E36D43F00103E365012012E045
:102E90000022196811F0400F04D108498A42EDD888
:102EA0000132F6E740221A600121A8E70826CFE7A1
:102EB0000426CDE7002070BD0020FCE7FFFF3FA304
:102EC00038B503689A6812F0010F3DD1044699683D
:102ED0001E4A114209D0836D43F010038365C36D10
:102EE00043F00103C36501202FE09A6822F00042FD
:102EF00022F03F0242F001029A60FEF737F90546E0
:102F000004E0FEF733F9431B022B11D823681A683B
:102F100012F0010F16D19A6812F0010FF1D19A68E0
:102F200022F0004222F03F0242F001029A60E8E7FC
:102F3000A36D43F01003A365E36D43F00103E36564
:102F4000012002E0002000E0002038BD3F000080AA
:102F500038B53A4B9D6803689B6813F0040F69D13C
:102F6000044605F01F0590F85430012B64D001236E
:102F700080F85430FFF7A4FF002857D1A36D23F445
:102F8000706323F0010343F48073A36523682C4A24
:102F900093422FD01A46934200D01DB9A26D22F45D
:102FA0008012A265A26D12F4805F26D0E26D22F03D
:102FB0000602E2651C221A60002384F8543022685D
:102FC0001F4B9A421CD013469A421CD0DDB1052DEE
:102FD00019D0092D17D0A26D42F48012A265DB68CA
:102FE00013F0007F27D0A36D23F4405343F48053A4
:102FF000A36520E0A2F58072CDE70022E265D9E763
:10300000A3F58073E0E7D36813F0007F05D0A36DCC
:1030100023F4405343F48053A365936823F00043A3
:1030200023F03F0343F00403936004E0002384F89B
:10303000543000E0022038BD0220FCE700030450B9
:103040000001045038B504460268936813F0020387
:1030500000D00123916811F0010F34D0002B34D13E
:10306000936803F00D03012B09D0A36D43F0100307
:10307000A365E36D43F00103E365012024E0936859
:1030800023F0004323F03F0343F0020393602368DF
:1030900003221A60FEF76AF8054623689B6813F05E
:1030A000010F0ED0FEF762F8401B0228F5D9A36D80
:1030B00043F01003A365E36D43F00103E3650120D2
:1030C00002E0002000E0002038BD0020FCE7000006
:1030D00038B5002800F0C8800446836D43F0020331
:1030E00083650321FFF770FE2268D36843F4001361
:1030F000D3600546002800F0AD802268536823F4B1
:10310000FF6323F007035360236840F2FF721A60E5
:103110002268936823F0A04393602268936843F089
:10312000005393602268D36803F08023D360226841
:10313000D36843F00043D3602268136923F4FF632C
:1031400023F0070313612268536903F0804353613E
:103150002268936903F0784393612268136A03F04D
:10316000F02313622268536A03F0FF23536222683C
:10317000936A03F0FF2393622268116B3B4B0B4071
:10318000136323685A6B3A490A405A632268936B67
:103190000B4093632268D36B23F4FB6323F0070394
:1031A000D36321680A6E334B1A400A6621684A6E5F
:1031B0001A404A6621688A6E1A408A662168CA6E79
:1031C0001340CB662268D2F8A030DB0CDB04C2F8D7
:1031D000A0302268D2F8A430DB0CDB04C2F8A430A3
:1031E0002268D2F8B030DB0CDB04C2F8B0302268C1
:1031F000D2F8B43023F07F13C2F8B4301E4B9A6873
:1032000012F0010200D001221C4B9B6813F0010355
:1032100000D0012313431A4A926812F0010200D031
:10322000012213430AD1174A936823F0FF7323F452
:10323000F73323F48F7323F0010393602046FEF7E6
:10324000E9F90023E36523666366A36584F85430D7
:10325000284638BD2046FFF7F5FE054600287FF4D6
:103260004CAF0123A36548E70125F1E7300882E070
:10327000200882E000F0FF03000004500001045029
:10328000000204500003045090F85430012B1AD06F
:1032900010B50446012380F854300321FFF794FD54
:1032A00018B1002384F8543010BD2046FFF7CAFE41
:1032B0000028F6D1A36D23F4885323F0010343F0D3
:1032C0000103A365EDE70220704730B583B000230A
:1032D000019390F85430012B41D004460D46012350
:1032E00080F85430FFF7AEFE80BBA36D23F4885303
:1032F00023F0020343F00203A3652268936823F0DE
:10330000404323F03F0305F080452B4343F0004347
:10331000936023689B68002B06DBA36D23F00303F7
:1033200043F00103A36515E0019B01330193019B69
:10333000B3F5912FEDD3A36D23F0120343F01003E7
:10334000A365002384F85430012006E0A36D43F008
:103350001003A365002384F8543003B030BD02206D
:10336000FBE7000090F85420012A00F0898030B477
:103370009AB00346012280F854200068414A9042E6
:103380003FD000220092009A002A3ED0926812F0AC
:10339000040200D00122806810F0040F61D1002ADD
:1033A0005FD10A68002A39D0374CA26822F4604203
:1033B000486893F8305040EA45300243A260314AF1
:1033C000906810F0010000D00120304A926812F09D
:1033D000010200D0012202432D48806810F0010054
:1033E00000D00120024347D1274CA26822F4716229
:1033F00022F00F020868896801430A43A260002096
:1034000034E002F580720092BDE79A6D42F020022E
:103410009A65002283F8542001202AE01A498A681C
:1034200022F460428A60174A916811F0010100D0CD
:103430000121164A926812F0010200D001220A43CB
:103440001349896811F0010100D001210A4315D107
:103450000D498A6822F4716222F00F028A6000200E
:1034600004E09A6D42F020029A650120002283F860
:1034700054201AB030BC70470020F7E70020F5E771
:103480000220704700000450000304500001045063
:1034900000020450074AD36823F4E0631B041B0CAA
:1034A000000200F4E060034343F0BF6343F40033E1
:1034B000D360704700ED00E030B4174BDB68C3F316
:1034C0000223C3F10704042C28BF04241D1D062D6C
:1034D00018D9033B4FF0FF3505FA04F421EA040143
:1034E000994005FA03F322EA0303194300280BDB92
:1034F0000901C9B200F1604000F5614080F8001395
:1035000030BC70470023E5E700F00F000901C9B2A5
:10351000024B1954F4E700BF00ED00E014ED00E0A9
:10352000002807DB00F01F02400901239340024AF4
:1035300042F82030704700BF00E100E070B4446CF6
:1035400004F01C05066C0124AC40746004686360E0
:103550008368102B05D0036899600368DA6070BC3B
:10356000704703689A600368D960F8E7002868D05C
:1035700010B403460068344A904244D8334A0244A7
:103580003349A1FB0212120992005A64314A1A64AB
:10359000022283F82520016821F4FF4121F0700107
:1035A0009A68DC6822431C6922435C6922439C6957
:1035B0002243DC6922431C6A22430A4302609A6860
:1035C000B2F5804F15D0196C224A914226D0224A7A
:1035D0001168586C00F01C040F20A04021EA000183
:1035E0001160116858685C6C04F01C04A040014331
:1035F00011600020D863012283F8252083F824007D
:103600005DF8044B7047154A02441149A1FB0212B0
:10361000120992005A64124A1A64B9E7A832116872
:10362000586C00F01C040F20A04021EA000111603A
:10363000116858685C6C04F01C04A04001431160E0
:10364000D7E70120704700BF07040240F8FFFDBF25
:10365000CDCCCCCC00000240A8040240F8FBFDBF5A
:103660000004024000284ED010B4034601680A68E6
:1036700022F001020A600168244A91422DD8244AAE
:103680000A442448A0FB0202120992005A64224A0A
:103690001A6400220A605A6C02F01C01186C0122A4
:1036A0008A404260196C1C4A914221D01B4C22680E
:1036B000596C01F01C000F21814022EA01022260B6
:1036C0000020D862186358639863D86383F8250094
:1036D00083F824005DF8044B7047114A0A440D48F2
:1036E000A0FB0202120992005A640E4A1A64D0E743
:1036F0000D4C2268596C01F01C000F21814022EA18
:1037000001022260DCE70120704700BF070402408D
:10371000F8FFFDBFCDCCCCCC00000240A804024095
:10372000F8FBFDBF00040240A800024038B5044683
:1037300090F82400012832D0012084F8240094F865
:103740002500C0B2012804D0002384F824300220D0
:1037500038BD022084F825000020E0632568286831
:1037600020F0010028602046FFF7E8FE236B5BB1E4
:103770002268136843F00E0313602268136843F055
:10378000010313600020E3E72268136823F00403B9
:1037900013602268136843F00A031360EDE7022008
:1037A000D6E790F82530DBB2022B06D00423C363A2
:1037B000002380F82430012070470268136823F04A
:1037C0000E0313600268136823F001031360436C57
:1037D00003F01C03016C012202FA03F34B6080F832
:1037E0002520002380F824301846704708B590F84B
:1037F0002530DBB2022B03D00423C363012008BDB4
:103800000268136823F00E0313600268136823F044
:1038100001031360436C03F01C03016C012202FAE4
:1038200003F34B6080F82520002380F82430836B5D
:1038300013B198470020E2E70020E0E738B5036CB9
:10384000196804682568436C03F01C0304229A403D
:103850000A4215D015F0040F12D0236813F0200F80
:1038600003D1236823F004032360436C03F01C029C
:10387000016C042393404B60036B03B1984738BD40
:1038800002229A400A421CD015F0020F19D0236878
:1038900013F0200F06D1236823F00A0323600123CD
:1038A00080F82530436C03F01C02016C0223934026
:1038B0004B60002380F82430C36A002BDFD0984788
:1038C000DDE7082202FA03F30B42D8D015F0080F07
:1038D000D5D0236823F00E032360436C03F01C0350
:1038E000016C012202FA03F34B60C26380F82520C9
:1038F000002380F82430436B002BC0D09847BEE7EC
:1039000010B4064C616941F0010161610260BFF3CE
:103910006F8F43605DF8044B704700BF002002408A
:1039200010B40B4A536943F480235361EFF31084BE
:1039300072B6402351F8042B40F8042B013B13F0DE
:10394000FF03F7D184F310885DF8044B704700BF84
:1039500000200240094B5B69002B01DB002070470F
:10396000064B074A9A6002F188329A605B69002B25
:1039700001DB002070470120704700BF002002409B
:1039800023016745034A536943F000435361002014
:10399000704700BF0020024038B50446FDF7E6FB43
:1039A0000546144B1B6913F4803F09D0B4F1FF3F67
:1039B000F7D0FDF7DBFB401BA042F2D3032016E05B
:1039C0000C4B1B694CF2FA32134009D1094B1B69AD
:1039D00013F0010F0CD0074B01221A61002006E002
:1039E00005494A681A434A60024A1361012038BDFA
:1039F0000020FCE700200240E00300202DE9F04118
:103A00001646284A1278012A49D004460D4698469F
:103A1000244B01221A704CF25030FFF7BDFF0746CD
:103A200008BB204B00225A601F4B1B6813F4806FA9
:103A30001FD01D4A136823F480631360194B0222C0
:103A40001A77D4B1631E012B1ED900244CF25030DA
:103A5000FFF7A2FF074624B1134A536923EA04047F
:103A6000546100F05DF80F4B00221A703846BDE833
:103A7000F0810C4B00221A77E3E732464346284692
:103A8000FFF73EFF0124E1E731462846FFF748FFF4
:103A9000022C01D00024D9E74FF48024D6E7022776
:103AA000E4E700BFE00300200020024010F0010F17
:103AB00004D0094A536943F00403536110F0020F24
:103AC00004D0054A536943F400435361024A5369E1
:103AD00043F48033536170470020024011F0010F1E
:103AE00016D00E4A536923F4006353610B4B5A6995
:103AF00022F4FF62C00000F4FF60104358615A696D
:103B000042F002025A615A6942F480325A617047A7
:103B1000024A536943F400635361E7E7002002401F
:103B2000144B1B7FDBB2012B01D0032B0CD1124AAB
:103B3000116841F400611160116821F400611160A5
:103B4000116841F400711160023BDBB2012B03D913
:103B5000084B00221A777047074B1A6842F48052CC
:103B60001A601A6822F480521A601A6842F480625D
:103B70001A60EDE7E003002000200240F8B53C4B5E
:103B80001B78012B71D004460E46394B01221A7066
:103B90004CF25030FFF700FF0746002860D1344B4D
:103BA00000225A60334B1B6813F4007F33D0314B33
:103BB0001A6822F400721A601B6813F4806F26D012
:103BC0002C4A136823F480631360294B03221A776D
:103BD0002368012B31D04FF0FF333360A568A36811
:103BE000E2681344AB4239D961682846FFF776FF93
:103BF0004CF25030FFF7D0FE1E4A536923F4FF63A6
:103C000023F002035361074638BB0135E7E7184B41
:103C100001221A77DCE7174B1B6813F4806F08D07A
:103C2000144A136823F480631360114B02221A773D
:103C3000CEE70F4B00221A77CAE76068FFF736FF1E
:103C40004CF25030FFF7A8FE07460A4A536923F4A6
:103C5000004323F00403536100E03560FFF760FF89
:103C6000034B00221A703846F8BD0227FBE700BF5D
:103C7000E003002000200240F0B583B0002336E0CE
:103C8000072400E00024B4403C430235654E46F86A
:103C90002540654C2568D44325EA02064F6817F491
:103CA000803F01D042EA05065F4D2E606D6804EA50
:103CB00005064F6817F4003F01D042EA05065A4D49
:103CC0006E60AD6804EA05064F6817F4801F01D0E6
:103CD00042EA0506544DAE60ED682C404E6816F47D
:103CE000001F01D042EA05044F4AD46001330A683C
:103CF00032FA03F400F0938001249C402240F5D076
:103D00004D686E1E012E03D9112D01D0122D12D136
:103D100086685F000325BD4026EA0506CD68BD40E4
:103D200035438560466826EA04064D68C5F30014ED
:103D30009C4034434460C7685E000325B540EC43B3
:103D400027EA05078D68B5403D43C5604D68022DE3
:103D500001D0122D13D1DF08083750F827E003F007
:103D600007054FEA850C0F2505FA0CF52EEA050E1E
:103D70000D6905FA0CF545EA0E0540F8275005686F
:103D800025404C6804F00304B4402C4304604C68A4
:103D900014F0805FAAD0254C256E45F001052566FC
:103DA000246E04F001040194019C9D08AE1C1D4C7E
:103DB00054F8267003F00304A6000F24B44027EA49
:103DC0000407B0F1904F3FF45DAF194CA0421AD0F8
:103DD00004F58064A04218D004F58064A04216D097
:103DE00004F58064A04214D004F58064A04212D08F
:103DF00004F58064A04210D004F58064A0423FF432
:103E00003FAF08243FE701243DE702243BE70324BA
:103E100039E7042437E7052435E7062433E703B000
:103E2000F0BD00BF0000014000040140001002404E
:103E300000040048002331FA03F200F08B80F0B553
:103E40002DE0072600E0002606FA04F4AC4265D017
:103E500005685C00032606FA04F42543056023FA8E
:103E600006F5083550F8256003F007074FEA870C80
:103E70000F2707FA0CF726EA070640F82560856841
:103E800025EA04058560456825EA02024260C268A9
:103E900022EA0404C460013331FA03F259D001224A
:103EA0009A4012EA010EF6D04FEA930C0CF102058B
:103EB000294C54F8255003F00304A4000F2606FAF9
:103EC00004F73D40B0F1904FBDD0244EB04219D020
:103ED00006F58066B04217D006F58066B04215D070
:103EE00006F58066B04213D006F58066B04211D068
:103EF00006F58066B0420FD006F58066B042A0D0CD
:103F00000826A1E701269FE702269DE703269BE7F7
:103F1000042699E7052697E7062695E7104C2568BD
:103F200025EA0E052560656825EA0E056560A56829
:103F300025EA0E05A560E56825EA0E05E560064D53
:103F40000CF1020455F8246026EA070645F82460BF
:103F50007EE7F0BD704700BF00000140000400484C
:103F60000004014003689A6912F0020F01D0002298
:103F70009A6203689A6912F0010F03D19A6942F0BC
:103F800001029A61704770B4039E05686868740DF9
:103F900004F4806444F07F7444F4583444F47F742F
:103FA00044F0030420EA0400C1F3090141EA02419C
:103FB000194331430143696070BC7047F8B5054649
:103FC0000E46174603689B6913F0100F01D10020BD
:103FD000F8BD2B689C6914F0200F17D1B6F1FF3F94
:103FE000F7D0FDF7C3F8C01BB04201D8002EF0D1C6
:103FF0006B6C43F020036B64202385F84130002371
:1040000085F8423085F840300120E1E71022DA617E
:104010002B682024DC612846FFF7A4FF2A68536838
:1040200023F0FF7323F48B3323F4FF7323F0010396
:1040300053606B6C43F004036B6485F841400023CC
:1040400085F8423085F840300120C1E770B504465C
:104050000D46164623689B6913F0020F1DD13246A8
:1040600029462046FFF7AAFFC8B9B5F1FF3FF1D0B6
:10407000FDF77CF8801BA84201D8002DEAD1636CC3
:1040800043F020036364202384F84130002384F844
:10409000423084F84030012000E0002070BD012053
:1040A000FCE72DE9F0410646884617461D46346870
:1040B000A46938EA04030CBF01240024BC4218D1CF
:1040C000B5F1FF3FF3D0FDF751F8069BC01AA842A7
:1040D00001D8002DEBD1736C43F0200373642023CF
:1040E00086F84130002386F8423086F840300120BF
:1040F00000E00020BDE8F08170B505460C4616468C
:104100002B689B6913F0200F1AD1324621462846AE
:10411000FFF754FFB0B9FDF729F8801BA04201D882
:10412000002CEDD16B6C43F020036B64202385F8E9
:104130004130002385F8423085F84030012070BDC1
:104140000020FCE70120FAE770B504460D4616464C
:1041500023689B6913F0040F3ED13246294620465E
:10416000FFF72CFF0146002838D123689A6912F026
:10417000200F13D1FCF7FAFF801BA84201D8002DB5
:10418000E6D1636C43F020036364202384F841305C
:10419000002384F840300121084670BD9A6912F06E
:1041A000040F02D0228D002AF6D12022DA61216884
:1041B0004B6823F0FF7323F48B3323F4FF7323F056
:1041C00001034B600023636484F8412084F842308B
:1041D00084F840300121DFE70021DDE70121DBE742
:1041E000002859D010B5044690F84130002B43D038
:1041F000242384F841302268136823F001031360FC
:104200006368226823F0706313612268936823F463
:1042100000439360E368012B33D0A368226843F422
:1042200004439360E368022B31D02268536843F063
:10423000007343F4004353602268D36823F40043BF
:10424000D360236962691343A169226843EA0123A9
:10425000D360E369216A22680B4313602268136804
:1042600043F00103136000206064202384F8413090
:10427000206384F8420010BD80F84030FDF752FC06
:10428000B6E7A368226843F400439360CAE7236853
:104290004FF400625A60C8E7012070472DE9F047EB
:1042A00082B00F460A9E90F84110C9B2202940F012
:1042B000A38004469046994690F84030012B00F0C8
:1042C0009F804FF0010A80F840A0FCF74FFF0546A1
:1042D0000090192352464FF400412046FFF7E1FEBB
:1042E000002840F08F80212384F84130102384F887
:1042F000423000236364C4F82480A4F82A906363E6
:10430000638D9BB2FF2B0AD9FF222285414B00937C
:104310004FF0807339462046FFF735FE18E0628D76
:1043200092B222853B4B00934FF00073D2B23946D4
:104330002046FFF728FE0BE0628D92B22285002313
:1043400000934FF00073D2B239462046FFF71BFEB0
:10435000638D9BB2002B33D02A4631462046FFF7AF
:1043600075FE002850D1626A236812789A62636AE7
:1043700001336362638D9BB2013B9BB26385238DE6
:10438000013B9BB22385628D92B2002AE0D0002BC4
:10439000DED100953346002280212046FFF781FEC2
:1043A000A0BB638D9BB2FF2BC6D9FF2222850023C1
:1043B00000934FF0807339462046FFF7E4FDC7E7CE
:1043C0002A4631462046FFF797FE08BB2368202285
:1043D000DA6121684B6823F0FF7323F48B3323F4F5
:1043E000FF7323F001034B6084F84120002384F81D
:1043F000423084F8403000E0022002B0BDE8F0878F
:104400000220FAE70120F8E70120F6E70120F4E7AF
:104410000120F2E7002000802DE9F04782B00F462E
:104420000A9E90F84110C9B2202940F0A2800446AB
:104430009046994690F84030012B00F09E804FF056
:10444000010A80F840A0FCF791FE05460090192370
:1044500052464FF400412046FFF723FE002840F06B
:104460008E80222384F84130102384F842300023C8
:104470006364C4F82480A4F82A906363638D9BB2BC
:10448000FF2B0AD9FF222285414B00934FF0807306
:1044900039462046FFF777FD18E0628D92B22285FB
:1044A0003B4B00934FF00073D2B239462046FFF7E2
:1044B0006AFD0BE0628D92B22285002300934FF0DB
:1044C0000073D2B239462046FFF75DFD638D9BB283
:1044D000002B32D02A4631462046FFF735FE002811
:1044E0004FD123685A6A636A1A70636A0133636240
:1044F000228D013A92B22285638D9BB2013B9BB221
:104500006385638D9BB2002BE0D0002ADED100953D
:10451000334680212046FFF7C4FDA0BB638D9BB2CC
:10452000FF2BC7D9FF222285002300934FF0807311
:1045300039462046FFF727FDC8E72A463146204680
:10454000FFF7DAFD08BB23682022DA6121684B6897
:1045500023F0FF7323F48B3323F4FF7323F0010361
:104560004B6084F84120002384F8423084F84030C6
:1045700000E0022002B0BDE8F0870220FAE7012047
:10458000F8E70120F6E70120F4E70120F2E700BF99
:10459000002400802DE9F04385B01D4600230393DD
:1045A00090F84130DBB2202B40F09E8006468946D1
:1045B000904603689B6913F4004F40F0978090F891
:1045C0004030012B00F09480012380F840302423F8
:1045D00080F841300023436444E0C9F3090343F009
:1045E000007343F4005344E033689C69C4F34014FF
:1045F0009B69C3F30013C4B9BBB9B5F1FF3FF3D056
:10460000FCF7B4FDC01BA84201D8002DECD120233B
:1046100086F84130736C43F020037364002386F8FE
:104620004030012005B0BDE8F08333689B6913F08A
:10463000100F2BD000972B46002220213046FFF789
:1046400030FD002858D133681022DA613368202207
:10465000DA61039B43452AD0039B01330393039BF9
:10466000434535D2F368012BB7D0C9F3090343F4AE
:10467000205332685360FCF779FD074633689C6924
:10468000C4F340149B69C3F30013B4E700972B46AF
:10469000002220213046FFF704FD58BB326820235A
:1046A000D36186F84130002386F84030BAE732689B
:1046B000536843F48043536000972B460022202127
:1046C0003046FFF7EEFCC8B933682022DA61C3E751
:1046D000202386F84130736C43F020037364002379
:1046E00086F8403001209DE702209BE7022099E7F1
:1046F000022097E7012095E7012093E7012091E749
:1047000090F84130DBB2202B24D190F84030012BBF
:1047100022D0012380F84030242380F84130026801
:10472000136823F0010313600268136823F48053B5
:10473000136002681368194311600268136843F03C
:1047400001031360202380F84130002380F84030BB
:1047500018467047022070470220704790F8413099
:10476000DBB2202B22D190F84030012B20D0012346
:1047700080F84030242380F841300268136823F029
:10478000010313600268136823F4706343EA012194
:1047900011600268136843F001031360202380F85E
:1047A0004130002380F8403018467047022070479F
:1047B0000220704740B338B5044603684CF6CC423B
:1047C0001A60036845F255521A60036842685A60DD
:1047D000036882689A60FCF7C9FC05462368DA68BA
:1047E00032B1FCF7C3FC401B3028F7D9032038BD99
:1047F0001969E268914202D01A610020F7E74AF68F
:10480000AA221A600020F2E70120704703684AF6E6
:10481000AA221A60002070472DE9F047D0F80080E6
:10482000C1EBC10300EB83035A6D1B6D9A4253D851
:1048300007460C46C1469B1AC1EBC10200EB82023F
:10484000526C9A4200D31A4602F1030A4FEA9A0ABE
:1048500013E006F1030A4FEA9A0AC4EBC40507EB1A
:104860008505B3B2E2B2A96C404605F0AFFDAB6C72
:104870003344AB646B6D1E446E6509EB441303F562
:1048800010639B699BB2534512D3C4EBC40207EB80
:104890008202516D136D99420AD24BB15B1AC4EB7F
:1048A000C40207EB8202566C9E42D2D31E46D0E76A
:1048B000C4EBC40007EB80073A6D7B6D9A420ED8BB
:1048C00004F00F040123A340D8F8344824EA030479
:1048D000C8F83448002000E00120BDE8F08700203F
:1048E000FBE7F0B58BB0002800F093800546046824
:1048F00090F8BD332BB3032385F8BD33E36B13F47A
:10490000807F01D100232B61286805F021FB2C4614
:1049100054F8107B6E460FCC0FC60FCC0FC694E830
:10492000030086E803002B1D0ECB384605F05EFA27
:10493000044658B1022385F8BD33012420460BB04C
:10494000F0BD80F8BC3306F0EBF9D4E7002128680D
:1049500005F004FB234616E0C3EBC30205EB82021D
:10496000012182F83D1082F83C30A2F8423000214B
:1049700082F83F1051649164C3EBC30205EB8202DD
:1049800011650133DBB269688B42E5D316E0C4EBF5
:10499000C40305EB8303002283F8FD2183F8FC4167
:1049A00083F8FF21C3F80422C3F80822C4EBC40330
:1049B00005EB8303C3F810220134E4B2A142E6D828
:1049C0002C4654F8107B6E460FCC0FC60FCC0FC68A
:1049D00094E8030086E803002B1D0ECB384605F053
:1049E00003FB044660B9002385F83830012385F8BD
:1049F000BD336B6A012B08D0286805F057FE9DE790
:104A0000022385F8BD33012498E7284600F03BFCDB
:104A1000F2E7012492E7026890F8BC33012B16D02C
:104A200010B50446012380F8BC33836A012B09D0FA
:104A3000206805F087FA206805F02AFE002084F837
:104A4000BC0310BD936B43F480339363F0E7022003
:104A50007047000038B503681C6C03EB411303F585
:104A600030639D680B4A94420FD115F4004F03D078
:104A70004FF400429A600BE015F0200F01D0202285
:104A80009A60C9B206F0B0F902E0C9B206F0ACF91A
:104A9000002038BD0A31544F10B503681C6C03EB7D
:104AA0004113D3F8081B074A944207D903F5306332
:104AB00011F4004F02D04FF400429A6006F08CF9D6
:104AC000002010BD0A30544F2DE9F04F83B004464A
:104AD0000568284605F029FE10B103B0BDE8F08F47
:104AE0002F460646206805F0EFFD0028F5D0206827
:104AF00005F0EAFD10F0020F04D02268536903F0BC
:104B000002035361206805F0DFFD10F0100F15D08F
:104B10002268936923F010039361D5F8208008F090
:104B20000F09C8F34343022B00F08580062B00F0E9
:104B3000AA802268936943F010039361206805F00E
:104B4000C3FD10F4002F40F0B080206805F0BCFDDC
:104B500010F4802F40F0F480206805F0B5FD0028A7
:104B6000C0F24681206805F0AFFD10F4006F0AD056
:104B7000D5F8083813F0010F40F0548122685369CA
:104B800003F400635361206805F09EFD10F0006F90
:104B900015D02268536903F00063536194F8F4332D
:104BA000002B40F04381012184F8F41323685B6DEE
:104BB000C3F38303C4F8F833204606F05BFA206899
:104BC00005F082FD10F4805F40F03481206805F02C
:104BD0007BFD10F4005F40F09281206805F074FDC9
:104BE00010F0080F40F0A381206805F06DFD10F46F
:104BF000801F40F0A581206805F066FD10F4001FBD
:104C000040F0A881206805F05FFD10F0804F40F073
:104C1000AB81206805F058FD10F0040F3FF45DAF44
:104C200023685D6815F0040F40F0A781226853687F
:104C30002B43536051E747F6F07318EA030F3FF434
:104C400078AF4FEA181B4FEAC9030193C9EBC90AB1
:104C500004EB8A0AC8F30A12DAF80812284605F0AB
:104C60009BFCCBF30A0BDAF808325B44CAF8083233
:104C7000019BA3EB090304EB8303D3F814325B44D9
:104C8000CAF8143255E7082204F57171284605F078
:104C900083FCC8F30A18C9EBC90204EB8202D2F8FC
:104CA00014324344C2F8143243E7206805F010FD83
:104CB0008046B14617E007EB49130122C3F8082BE1
:104CC00049462046FFF7C6FE1DE007EB49130822C0
:104CD000C3F8082B49462046FFF7DEFE16E009F12F
:104CE00001094FEA5808B8F1000F3FF42EAF18F051
:104CF000010FF4D05FFA89F1206805F0F9FC8246D3
:104D000010F0010FD7D11AF0080FDED11AF0100FF2
:104D100004D007EB49131022C3F8082B1AF0200F18
:104D200004D007EB49132022C3F8082B1AF4005FC4
:104D3000D5D007EB49134FF40052C3F8082BCEE748
:104D4000206805F0CDFC8046B1461AE009F00F035B
:104D5000012101FA03F2D7F8343823EA0203C7F835
:104D6000343807EB4913C3F808195946204606F0B2
:104D700047F817E01AF0800F35D109F101094FEA21
:104D80005808B8F1000F3FF4E7AE18F0010FF4D067
:104D90005FFA89FB5946206805F0B3FC824610F0A3
:104DA000010FD3D11AF0080F04D007EB49130822E2
:104DB000C3F808291AF0100F04D007EB491310228A
:104DC000C3F808291AF0400F04D007EB491340221A
:104DD000C3F808291AF0020FCCD007EB49130222BE
:104DE000C3F80829C6E749462046FFF715FDC4E782
:104DF000D5F8043823F00103C5F8043894F8F433E7
:104E0000012B08D0204606F037F82268536903F0DA
:104E100000435361A6E6002184F8F413204606F00F
:104E200029F9F2E7204606F00FF8A7E6204606F03B
:104E30000BF8C4E605F50068D8F8043023F0010348
:104E4000C8F804301021206805F0A0F820E007EB36
:104E500046134FF67F31C3F80819D3F8002922F41E
:104E60000012C3F80029D3F8002942F00062C3F809
:104E70000029C3F8081BD3F8002B22F40012C3F852
:104E8000002BD3F8002B42F00062C3F8002B013650
:104E90006368B342DBD8D8F81C3043F00113C8F87C
:104EA0001C30236BE3B1D8F8843043F00B03C8F80F
:104EB0008430D8F8443043F00B03C8F84430D5F8B8
:104EC000003823F4FE63C5F8003804F571712068DA
:104ED00005F040FC2268536903F48053536175E682
:104EE000D8F8143043F4005343F02B03C8F81430BF
:104EF000D8F8103043F00B03C8F81030DFE7206813
:104F000005F017FC206805F025F9E060256800F041
:104F1000C5FE0146227B284604F0A2FF204605F08C
:104F200080FF2268536903F40053536155E620461D
:104F300005F071FF2268536903F00803536153E6DB
:104F40000021204605F0B8FF2268536903F480135E
:104F5000536150E60021204605F0A8FF22685369FE
:104F600003F4001353614DE6204605F0ABFF2268C1
:104F7000536903F0804353614BE6204605F0A8FFD8
:104F800054E690F8BC33012B0DD010B50446012334
:104F900080F8BC3380F83810006805F069FB002009
:104FA00084F8BC0310BD02207047F8B507460C46D4
:104FB00011F0800F27D101F00F05C5EBC506B60033
:104FC00006F5FC760644311DC5EBC50500EB8505ED
:104FD000002085F8FD0104F00F040C708A60CB708E
:104FE0004A7802B1CC80022B1DD097F8BC33012B3C
:104FF0001CD0012387F8BC33386805F0B9F80020CD
:1050000087F8BC03F8BD01F00F00C0EBC0018900B8
:10501000383139440431C0EBC00007EB8000012572
:1050200080F83D50D7E700230B71DEE70220E9E767
:1050300010B504460A4611F0800F20D101F00F0090
:10504000C0EBC0039B0003F5FC732344191DC0EBA8
:10505000C00004EB8000002380F8FD3102F00F0255
:105060000A7094F8BC33012B19D0012384F8BC33A7
:10507000206805F0C7F8002084F8BC0310BD01F0DB
:105080000F00C0EBC0039B0038332344191DC0EB55
:10509000C00004EB8000012380F83D30DEE70220F1
:1050A000ECE738B501F00F04C4EBC401890001F549
:1050B000FC7101440431C4EBC40500EB8505C5F85F
:1050C0000822C5F810320023C5F8143285F8FD31E6
:1050D00085F8FC4124B9006805F002F9002038BDCC
:1050E000006805F085F9F9E701F00F01C1EBC10196
:1050F00000EB8101D1F81402704738B501F00F04BC
:10510000C4EBC4018900383101440431C4EBC40547
:1051100000EB8505AA642B6500236B65012385F8E8
:105120003D3085F83C4024B9006805F0D9F80020EE
:1051300038BD006805F05CF9F9E738B501F00F05F6
:105140004268954238D804460B4611F0800F1FD1B3
:10515000C1EBC101890001F5FC7101440431C3EBCD
:10516000C30300EB8303002283F8FD2101238B702E
:105170000D7094F8BC33012B20D0012384F8BC338C
:10518000206805F01AFA8DB1002084F8BC0338BD00
:10519000C5EBC5018900383101440431C5EBC503B5
:1051A00000EB8303012283F83D20DFE704F57171F2
:1051B000206805F0CFFAE7E70120E8E70220E6E7FC
:1051C00001F00F034268934231D810B5044611F044
:1051D000800F1ED1C3EBC301890001F5FC710144AE
:1051E0000431C3EBC30200EB8202002082F8FD0110
:1051F00000228A700B7094F8BC33012B19D0012364
:1052000084F8BC33206805F005FA002084F8BC035C
:1052100010BDC3EBC3018900383101440431C3EB35
:10522000C30200EB8202012082F83D00E0E701208A
:1052300070470220ECE730B40468606A19B940EAAC
:105240000240A06218E00D46A36A00EB1340002361
:10525000691E8B4209D203F1400104EB81014968C8
:1052600000EB11400133DBB2F2E740EA024005F106
:105270003F0104EB81014860002030BC70470368A7
:10528000596200207047034602680121C0F8FC13F0
:10529000002083F8F403936943F000639361536D36
:1052A00043F0805343F0030353657047024A136889
:1052B00043F480731360704700700040024B18681D
:1052C00000F4C060704700BF00700040B0F5007F80
:1052D0000FD01F4B1B6803F4C063B3F5806F34D04D
:1052E0001B4A136823F4C06343F4806313600020F7
:1052F0007047174B1B6803F4C063B3F5007F20D0E1
:10530000134A136823F4C06343F400731360114B12
:105310001A68322303FB02F30F4AA2FB03239B0C00
:10532000013300E0013B0A4A526912F4806F01D058
:10533000002BF7D1064B5B6913F4806F03D100207B
:10534000704700207047032070470020704700BF5F
:1053500000700040D403002083DE1B43024A5368E0
:1053600043F48063536070470070004030B583B0F1
:105370000446204B9B6D13F0805F0BD0FFF79EFF20
:10538000B0F5007F17D0802C1FD82DD0702C2DD0D9
:1053900000211BE0174DAB6D43F08053AB65AB6D47
:1053A00003F080530193019BFFF788FFAB6D23F05F
:1053B0008053AB65E4E7802C03D9A02C03D90221EC
:1053C00004E0002102E0012100E003210A4A136801
:1053D00023F007030B431360136803F007038B42AA
:1053E00006D1002003B030BD0221EFE70121EDE737
:1053F0000120F7E70010024000200240284A93688D
:10540000D26802F0030213F00C030AD00C2B06D072
:10541000042B1FD0082B20D00020024610E0012AC8
:10542000F6D11F4A126812F0080F0CD11C4AD2F8AC
:105430009420C2F303221B4951F8222043B10020DB
:105440000C2B0DD07047164A1268C2F30312F2E714
:105450001046F5E714480022F2E714480022EFE76F
:105460000F4BDB6803F00303022B16D0032B00D194
:105470000E4A0B4BD868C0F302100130D968C1F353
:10548000062102FB01F2B2FBF0F2D868C0F34160E2
:1054900001304000B2FBF0F0D4E7034AE9E700BF77
:1054A00000100240309902080024F40000127A0033
:1054B000002800F02D83F0B583B00446AE4B9D6804
:1054C00005F00C05DE6806F00306036813F0100F04
:1054D0005AD0E5B10C2D18D0A369002B00F0BB8089
:1054E000A54A136843F001031360FBF73FFE07462C
:1054F000A14B1B6813F0020F40F09A80FBF736FEB9
:10550000C01B0228F4D903200DE3012EE4D19A4BED
:105510001B6813F0020F03D0A369002B00F0FA827E
:10552000206A954B1B6813F0080F5BD0924B1B68E9
:1055300003F0F00398425CD88F4B1A6842F00802DF
:105540001A601A6822F0F002216A0A431A605A6847
:1055500022F47F42E16942EA01225A60002D60D0C4
:10556000FFF74CFF844B9B68C3F30313834AD35C60
:1055700003F01F03D840824B1860824B1868FCF779
:105580005FFD002840F0CF82236813F0010F00F088
:105590008180082D75D00C2D71D06368B3F5803FE4
:1055A00000F09780B3F5A02F00F09980724B1A6835
:1055B00022F480321A601A6822F480221A6063682A
:1055C000002B00F09980FBF7D1FD07466A4B1B6862
:1055D00013F4003F5ED1FBF7C9FDC01B6428F5D969
:1055E0000320A0E2644BD3F894301B0903F0F003CE
:1055F000A0E7FFF7BBFE002840F08E825E4B1A68E2
:1056000042F008021A601A6822F0F002216A0A4386
:105610001A605A6822F47F42E16942EA01225A6024
:105620009EE7206AFFF7A2FE002899D001207AE2C7
:10563000514B1A6842F008021A601A6822F0F00210
:10564000216A0A431A605A6822F47F42E16942EAF9
:1056500001225A6098E7484A136823F00103136057
:10566000FBF784FD0746444B1B6813F0020F8BD0F9
:10567000FBF77CFDC01B0228F5D9032053E2032E63
:105680008BD13D4B1B6813F4003F03D06368002BA4
:1056900000F04482236813F0020F4FD0042D3CD059
:1056A0000C2D38D0E368002B77D0334A136843F4CD
:1056B00080731360FBF75AFD06462F4B1B6813F4EB
:1056C000806F61D1FBF752FD801B0228F5D90320C2
:1056D00029E2294A136843F4803313606FE703F12A
:1056E0008043A3F53C331A6842F480221A601A689A
:1056F00042F480321A6062E7FBF738FD07461E4B22
:105700001B6813F4003FC5D0FBF730FDC01B6428B5
:10571000F5D9032007E2022EC4D1174B1B6813F4FE
:10572000806F03D0E368002B00F0FA81124A5368BF
:1057300023F0FE43216943EA01635360236813F0B9
:10574000080F55D06369002B3BD00B4AD2F8943038
:1057500043F00103C2F89430FBF708FD0646064B00
:10576000D3F8943013F0020F42D1FBF7FFFC801BFB
:105770000228F4D90320D6E100100240189902084B
:10578000D4030020DC030020B74A536823F0FE4313
:10579000216943EA01635360D0E7B34A136823F4F5
:1057A00080731360FBF7E2FC0646AF4B1B6813F4F3
:1057B000806FC3D0FBF7DAFC801B0228F5D90320E9
:1057C000B1E1A94AD2F8943023F00103C2F8943031
:1057D000FBF7CCFC0646A44BD3F8943013F0020F31
:1057E00006D0FBF7C3FC801B0228F4D903209AE102
:1057F000236813F0040F7AD09B4B9B6D13F0805FEE
:1058000036D1994B9A6D42F080529A659B6D03F0A8
:1058100080530193019B0126944B1B6813F4807FF6
:1058200028D0A368012B39D0052B3FD08E4BD3F85D
:10583000902022F00102C3F89020D3F8902022F0AB
:105840000402C3F89020A368002B3DD0FBF78EFC28
:105850000746854BD3F8903013F0020F46D1FBF783
:1058600085FCC01B41F288339842F2D903205AE1EB
:105870000026D1E77D4A136843F480731360FBF779
:1058800075FC0746794B1B6813F4807FC9D1FBF781
:105890006DFCC01B0228F5D9032044E1724AD2F8FE
:1058A000903043F00103C2F89030CCE76E4BD3F850
:1058B000902042F00402C3F89020D3F8902042F0E8
:1058C0000102C3F89020BEE7FBF750FC0746664B89
:1058D000D3F8903013F0020F08D0FBF747FCC01B41
:1058E00041F288339842F2D903201CE1E6B92368DB
:1058F00013F0200F35D0636AE3B15B4AD2F89830D9
:1059000043F00103C2F89830FBF730FC0646564BD3
:10591000D3F8983013F0020F23D1FBF727FC801B3C
:105920000228F4D90320FEE04F4A936D23F0805300
:105930009365DCE74C4AD2F8983023F00103C2F8B3
:105940009830FBF713FC0646474BD3F8983013F01A
:10595000020F06D0FBF70AFC801B0228F4D90320B3
:10596000E1E0A36A002B00F0DD80022B27D00C2D94
:1059700000F0DF803C4B1A6822F080721A601B68CE
:1059800013F0205F04D1384AD36823F00303D360B7
:10599000354AD36823F0887323F48033D360FBF750
:1059A000E5FB0446304B1B6813F0007F00F0AE802F
:1059B000FBF7DCFB001B0228F4D90320B3E02A4BE1
:1059C000DB6803F00301E26A91420FD00C2D00F076
:1059D000AC80254B1B6813F0806F40F0A880224BF1
:1059E0001B6813F0805F2BD001209CE003F0700255
:1059F000216B0139B2EB011FE8D103F4FE42616B68
:105A0000B2EB012FE2D103F07842A16BB2EBC16F90
:105A1000DCD103F4C001E26B5208013AB1EB425F02
:105A2000D4D103F0C063226C5208013AB3EB426F49
:105A3000CCD10D4B1B6813F0007F4DD0002072E0DD
:105A4000094A136823F080731360FBF78FFB054648
:105A5000054B1B6813F0007F0AD0FBF787FB401B48
:105A60000228F5D903205EE00010024000700040DB
:105A7000314AD36831491940E36A206B013843EA5F
:105A80000013606B43EA0023E06B4008013843EAEF
:105A90004053206C4008013843EA4063A06B43EA5E
:105AA000C0630B43D360136843F080731360D36803
:105AB00043F08073D360FBF759FB04461E4B1B6811
:105AC00013F0007F06D1FBF751FB001B0228F5D92C
:105AD000032028E0002026E0174B1A6842F080726D
