:020000040800F2
:1000000000040020390200083B0200083B020008FF
:100010003B0200083B0200083B0200083B020008CC
:100020003B0200083B0200083B020008F1610008A7
:100030003B0200083B0200083B0200083B020008AC
:100040003B0200083B0200083B0200083B0200089C
:100050003B0200083B0200083B0200083B0200088C
:100060003B0200083B0200083B020008E11D0008BB
:10007000511E0008D11E0008511F0008D11F0008A2
:1000800051200008D12000083B0200083B02000874
:10009000E12600083B0200083B0200083B02000882
:1000A0003B0200083B0200083B0200083B0200083C
:1000B000512400083B0200083B0200083B020008F4
:1000C0003B0200083B0200083B0200083B0200081C
:1000D0003B0200083B0200083B0200083B0200080C
:1000E0003B0200083B0200083B0200083B020008FC
:1000F0003B0200083B0200083B0200083B020008EC
:100100003B020008C12300083B0200083B02000834
:100110003B0200083B0200083B0200083B020008CB
:1001200051210008C121000841220008C122000815
:10013000412300083B0200083B0200083B02000884
:100140003B0200083B0200083B0200083B0200089B
:100150003B0200083B0200083B0200083B0200088B
:1001600072B6274880F30888264880F30988264815
:100170004EF60851CEF200010860022080F3148888
:10018000BFF36F8F01F014FB02F07AFC4FF0553093
:100190001E491B4A91423CBF41F8040BFAE71C4937
:1001A000184A91423CBF41F8040BFAE719491A4A30
:1001B0001A4B9A423EBF51F8040B42F8040BF8E781
:1001C00000201749174A91423CBF41F8040BFAE757
:1001D00001F006FB01F0F4FA134C144DAC4203DAC3
:1001E00054F8041B8847F9E70EF0FAF9104C114D4A
:1001F000AC4203DA54F8041B8847F9E701F0E8BA87
:10020000000400200008002000000008000000207A
:1002100000040020B830010800080020E408002095
:10022000E8080020802E002060010008600100081E
:10023000600100086001000892E700F000F8FEE7A6
:100240002DE9F04FC1F80CD0C3689D46BDE8F08F92
:10025000002383F311882846A047002004F0A8F863
:10026000FEE703F0ADFC00DFFEE70000844641EA54
:10027000000313F0030349D1403A23D30B68036012
:100280004B6843608B688360CB68C3600B69036114
:100290004B6943618B698361CB69C3610B6A0362FC
:1002A0004B6A43628B6A8362CB6AC3620B6B0363E4
:1002B0004B6B43638B6B8363CB6BC36340304031C9
:1002C000403ADBD230320BD30B6803604B6843609B
:1002D0008B688360CB68C36010301031103AF3D262
:1002E0000C3205D351F8043B40F8043B043AF9D2F0
:1002F000043208D0D2071CBF11F8013B00F8013BC3
:1003000001D30B8803806046704700BF082A13D3CF
:100310008B07B1D010F00303AED0C3F10403D21A9F
:10032000DB071CBF11F8013B00F8013BA4D331F8F7
:10033000023B20F8023B9FE7043AD9D3013A11F877
:10034000013B00F8013BF9D20B7803704B78437006
:100350008B7883706046704780EA010C1CF0030FB5
:1003600037D110F0030C20F0030021F0030150F806
:10037000042B08BF51F8043B0ED08CF0030C6FF037
:100380007F434FEACC0C23FA0CFC51F8043B42EAC1
:100390000C0243EA0C0300BFA2F1013C9A4201BFE8
:1003A0002CEA020C1CF0803F50F8042B51F8043B5F
:1003B000F2D04FEA02604FEA1222012828BFB0EBC8
:1003C000036F08BF1B0AF4D003F0FF03000EC01A2E
:1003D000704710F0030F0AD010F8012B11F8013B01
:1003E000012A28BF9A42F4D0A2EB030070474DF8CF
:1003F000045D50F8042B01F0030521F0030151F8CE
:10040000043B022D26D04DD822F07F45B5EB132FAB
:10041000A2F1013C2CEA020C0DD11CF0803C08BF7B
:1004200051F8043B0AD185EA0205B5EB036F0CD104
:1004300050F8042BE8E74FEA13235BE03CF07F4CD5
:1004400054D10B784FEA126554E04FEA126503F07D
:10045000FF034FE04FEA0245A2F1013C4FEA154588
:100460002CEA020CB5EB134F18D11CF0803C08BFEE
:1004700051F8043B07D185EA0205B5EB034F09D1DA
:1004800050F8042BE6E75FEA0C4C2FD10B884FEABB
:1004900012452FE04FEA03434FEA12454FEA134358
:1004A00028E000BF02F0FF05B5EB136FA2F1013C9D
:1004B0002CEA020C0DD11CF0803C08BF51F8043B23
:1004C0000AD185EA0205B5EB032F0AD150F8042BB7
:1004D000E8E74FEA13630DE012F0FF0F06D051F882
:1004E000043B4FEA122523F07F4303E04FF0000066
:1004F00020BC704705F0FF0203F0FF00012828BF71
:10050000904204BF2D0A1B0AF4D0A2EB000020BCCD
:10051000704700BF00000000000000000000000065
:10052000C3689B0F0CD0012B08D18368C2881804C4
:1005300000F47C10104301308002704700207047A7
:1005400040F6FC7330B4D0E9014503EA8500C4F3FA
:10055000C23140EA9470C5F3034202310130093AD6
:100560008840904030BC7047000000000000000050
:100570000079053818BF0120704700BF0000000057
:100580000379052B06D14FF40073826A0020C1E97C
:10059000003270470120704700000000000000009A
:1005A0000020704700000000000000000000000074
:1005B00090F8742002F06002202A01D000207047D9
:1005C00090F875200346212A0BD81F2AF6D9072157
:1005D000002210B4074C0120C3E91A411A6710BC6D
:1005E0007047222AEAD100220120C3E91A221A67A1
:1005F000704700BF1008002000000000000000004D
:10060000704700BF00000000000000000000000074
:1006100090F87630074A80F87E3043F0800310B5BA
:10062000D364436804461B680BB101219847032338
:10063000237010BD005C00400000000000000000BE
:10064000F0B40124B0F808C000EB8105ED688C40DF
:1006500044EA0C0404812C8A00279C4228BF1C46D3
:1006600068691B4EC0E9022447600360336D0801CE
:1006700003F1804303F5C043C05803EB01135C60F2
:10068000A4B100F1005000F54050400004F1FF3CDF
:100690004FEA5C0C031D03EB8C0C00E004330446B2
:1006A00032F8025B9C4518462560F7D1F0BC084A39
:1006B00052F8213023F4F04323F0400383F0300359
:1006C00043F4004343F0800342F82130704700BFF9
:1006D000005C00400000000000000000000000007E
:1006E00030B5446BD4F88C2410680178042902D109
:1006F000217A022900D030BD4FF0010C1179B0F8F9
:1007000008E00CFA01F212EA0E02F4D1D4E915C5A0
:10071000AC4506D02A4652F8043BBDE83040FFF70E
:100720008FBF246D002CF5D0F7E700BF000000005C
:1007300038B590F864300446152B2AD8DFE803F06A
:100740000B29292929290B29290B0B0B29292929AF
:1007500029292929382A48F280001B4963680A6838
:100760001D6822F4F04222F0400282F0100202439F
:100770000A600B6823F4904323F0700383F48053E2
:1007800003430B6015B106212046A847062384F8D1
:10079000643038BD0B22202380F8642083F3118855
:1007A00000231A461946FFF74BFF81F3118838BD25
:1007B000C3689B695B68002BEBD1036F03B198475B
:1007C000002384F8643038BD005C00400000000065
:1007D00001F001038A0748BF43F002034A0748BFFC
:1007E00043F008030A0748BF43F00403CA0648BFA2
:1007F00043F010038A0648BF43F020038A05426B8A
:1008000048BF43F0400313434363704700000000B8
:100810002DE9F8430E254FF000080F461646D0E9A3
:10082000112392F80DC0596B05FA0CF5D2E900C9F5
:10083000CCF80450D9F80020DFF854E022F00F0281
:10084000C9F80020CCF80450C3F838E0C3F83C8065
:10085000C3F82C80FFF7BCFF012F01D8BDE8F88357
:1008600040F24C420446836CC3F80880DA60596B4E
:1008700011F04500FBD011F0050F986303D15B69BF
:100880003360BDE8F8832046BDE8F843FFF7A0BF1A
:10089000FF07C00000000000000000000000000092
:1008A000034B986880F40060C0F3C020704700BF1D
:1008B000001C0140000000000000000000000000DB
:1008C000FEE700BF00000000000000000000000084
:1008D000202310B483F311880B4B49425C68201A23
:1008E00008401968821A8A4207D3944205D35A6095
:1008F000002383F3118810BC70470020002383F38A
:10090000118810BC704700BF2011002000000000BB
:1009100003681A1D02601B68184700BF0000000032
:1009200002460368191D0160586853F8081B1360DC
:10093000084700BF000000000000000000000000A9
:100940000346026830B4111D50681960146802F142
:100950000C0591681D60234630BC1847000000005C
:100960000246036830B4D3E901011C1D14601C6801
:1009700003F110051560DA68234630BC184700BF44
:100980008446036830B4D3E901011C1DDA68CCF851
:1009900000401C6803F11405CCF800501B69A44604
:1009A00030BC6047000000000000000000000000B4
:1009B000064B49425A68101A08401968884203D306
:1009C000824201D3586070470020704720110020F8
:1009D000022906D0032906D00129074818BF0020A4
:1009E000704706487047032A03D8054800EBC20049
:1009F00070470020704700BF00240108B42301089D
:100A00008824010800000000000000000000000031
:100A1000202282F31188254AD2F88C14086890F8B5
:100A200000C0BCF1040F04D192F808C0BCF1020F61
:100A300003D0002383F3118870474FF0010C70B589
:100A40000979B0F808E00CFA01FC1CEA0E0F03D09B
:100A5000002383F3118870BDD2E91554A542F7D164
:100A6000156D002DF4D0D56E002DF1D0043D2D1B59
:100A7000EED02560156D166E013D1565D56D2644C9
:100A8000AE424FF00005566528BF966ED56628BF6A
:100A90005665B44205D0224652F8043BFFF7D0FD1C
:100AA000D6E7126D002AF6D02A46F7E7340B00206D
:100AB00010B50446034BE1B2586A0368DB689847F7
:100AC000204610BD3411002000000000000000008E
:100AD000012210B43E4C2023226083F311883D494B
:100AE0000A688A425DD00023126801338A42FBD132
:100AF0004A688A4241D05268013B8A42FBD1002BAE
:100B00003BD1002383F3118802202022206082F34E
:100B1000118831480A69824249D012680133824201
:100B2000FBD14A69824232D05268013B8242FBD1FA
:100B30006BBB002383F3118803202022206082F303
:100B4000118826488A6A82423ED012680133824266
:100B5000FBD1CA6A82422ED05268013B8242FBD14D
:100B60004BBB002383F3118804212022216082F3F0
:100B7000118883F3118810BC7047002383F3118818
:100B800040F20113164AA380A26010BC70470023F4
:100B900083F3118840F20113124AA380A26010BCB3
:100BA00070474A688A4218BF0023A4D1A9E74A695E
:100BB0008242B9D1BDE7002383F3118840F20113CB
:100BC000094AA380A260E0E7CA6A8242C4D1C8E7AA
:100BD00034110020501000206010002078100020F8
:100BE00090FE0008A8FE0008CCFE000800000000EF
:100BF0000121074A2023116083F3118862B672B67F
:100C000083F3118862B6002383F3118862B67047BC
:100C1000341100200000000000000000000000006F
:100C200001224FF08041044B1A604A6A92B24B6A2B
:100C30009BB29A42FBD070473411002000000000A4
:100C40000322014B1A60704734110020000000009D
:100C5000054BDA6803F120018A4203D20178501C67
:100C6000D8601170704700BF3411002000000000F0
:100C70000022014B1A607047B419002000000000E8
:100C80000122024BC3E900339A60704754120020DE
:100C90000022024BC3E900339A60704754120020CF
:100CA0000022024BC3E900339A60704754120020BF
:100CB0000022024BC3E900339A60704754120020AF
:100CC0000022024BC3E900339A607047541200209F
:100CD0000022024BC3E900339A60704718080020D5
:100CE0000022024BC3E900339A60704718080020C5
:100CF0000021044A044BC2E90022C3E90033916099
:100D000099607047180800202808002000000000A3
:100D10000021044B044AC3E90131C2E900221B60EF
:100D2000704700BF180800200008002000000000E5
:100D30000021044B044AC3E90131C2E900221B60CF
:100D4000704700BF180800200008002000000000C5
:100D50000020064A064B0749C3E90033C1E90011E8
:100D60001260526090609860704700BF18080020C1
:100D700028080020000800200000000000000000FB
:100D8000054BDA6803F120018A4203D24121501C4D
:100D9000D8601170704700BF3411002000000000BF
:100DA000054BDA6803F120018A4203D24221501C2C
:100DB000D8601170704700BF34110020000000009F
:100DC000054BDA6803F120018A4203D24321501C0B
:100DD000D8601170704700BF34110020000000007F
:100DE000F0B40227384A394C20208AB012602760BC
:100DF00080F3118801234FF0FF3607930023116819
:100E0000334D0591E968CDE90836069105A91160D1
:100E100083F3118880F31188ED68029701951568B6
:100E2000049600956D460393156083F3118880F353
:100E300011881668964237D083F311880323236004
:100E400080F31188134601E08B4237D018461B68A7
:100E50009342F9D1002383F31188202181F3118873
:100E60001068904220D083F311880423236081F31B
:100E70001188154B01E0AB4223D019461B68934201
:100E8000F9D1002383F31188202181F3118811689F
:100E900091421FBF40F201120E49A280A16083F36C
:100EA00011880AB0F0BC704740F201120A49A280D2
:100EB000A16083F311880AB0F0BC7047059B036002
:100EC000C8E7009B0B60DCE7080800203411002015
:100ED00050100020F4FE0008E8FE000800000000AA
:100EE000202383F311880023024AD268936383F39B
:100EF0001188704750100020000000000000000022
:100F0000202383F311880023024AD268936383F37A
:100F10001188704750100020000000000000000001
:100F2000202383F311880023024AD268936383F35A
:100F300011887047501000200000000000000000E1
:100F4000202383F311880023024AD268936383F33A
:100F500011887047501000200000000000000000C1
:100F6000202383F311880023024AD268936383F31A
:100F700011887047501000200000000000000000A1
:100F8000202383F311880023044AD268936383F3F8
:100F90001188034A034B12601B60704750100020F9
:100FA000080800200C0800200000000000000000DD
:100FB000054BDA6803F120018A4203D20178501C04
:100FC000D8601170704700BF34110020000000008D
:100FD00000200A4B0A4AD91D21F00701CB1AC3F59C
:100FE000E563DB0851604B6002F10C03C2E9033397
:100FF0001060906008605061704700BF7012002060
:101000002812002000000000000000000000000086
:1010100000224FF4B8700421024BC3E90020C3E959
:10102000021270474412002000000000000000007F
:10103000704700BF0000000000000000000000003A
:10104000202383F3118891F82430072B0DD8DFE893
:1010500003F0270C0C2308040C088A6A93680133F8
:101060009360D1E9003213605A60002210B44FF04F
:10107000FF348B6988688C6281F824201B689A6829
:101080008242FBD25A680020C1E9003211605960E7
:1010900080F3118810BC704700228B6A1A60E4E765
:1010A000002383F311887047000000000000000057
:1010B000184B026810B4DC68C3688242E36325D031
:1010C000216C4BB11A68934203D09268914238BFA9
:1010D0001146DB68002BF5D14FF0000CA1600368CE
:1010E0001A68D96B9C68026050609A69C0E9023145
:1010F000D86383F824C012689168A142FBD251687A
:1011000010BCC3E900210B6053607047002310BC82
:1011100093607047501000200000000000000000A5
:10112000F8B5202305460F46164683F31188806CD8
:10113000C36B03BB436B13F4807318D0696C4C68AA
:101140006368002BFCD10E22D4F800C02CF00F0CE9
:10115000C4F800C04C7B0968A2404A601C4A826304
:10116000C36283F31188012F1BD81846F8BD83F39F
:1011700011880120F8BD2A464FF0030C0124154BBD
:10118000D968186842F83C1F81F824C08A62026856
:1011900053601A6080F82440D860FFF751F8A86CBB
:1011A000C8E740F24C41AA6C9360D160516B11F0DA
:1011B0004503FBD0936311F0050303D15269184630
:1011C0003260F8BD2846FFF703FB0120F8BD00BFE1
:1011D000FF07C000501000200000000000000000C9
:1011E000F0B51D46044640F22A379B26436CDFF8D3
:1011F00094C05B6883B0DA60026C68024FEA900EBC
:10120000C3F804E01A601A6842F001021A60236B06
:10121000A26CDB0658BF4902012DC2F838C0D76363
:101220009062D66225D940F252439160D360516BEF
:1012300011F04503FBD011F0050F93630DD15269F6
:10124000114B0192134001AE5BB93246294620464C
:10125000FFF766FF28B903B0F0BD2046FFF7B8FAE4
:1012600001AE204632462946FFF7D2FA012003B0EC
:10127000F0BD40F251439160D360516B11F04503D2
:10128000FBD0D8E7FF07C00008E0FFFD000000002A
:10129000F0B51E46054640F21A37436CDFF8ACC085
:1012A0005B6883B0DA60026C700242F0100284085E
:1012B0005C601A601A68AC6C42F001021A602B6B19
:1012C000C4F838C0DB0658BF4902012EE763A062AC
:1012D00024D940F25943A160E360616B11F04503EA
:1012E000FBD011F0050FA36324D16269184B019262
:1012F000134053B9992301AF3A4631462846E36279
:10130000FFF70EFF10B903B0F0BD01AF28463A4613
:101310003146FFF77DFA012003B0F0BD4FF48B6337
:10132000A160E360616B11F04503FBD011F0050F84
:10133000A363DAD0284601AFFFF74AFA28463A46B7
:101340003146FFF765FA0120E6E700BFFF07C0005E
:1013500008E0FFFD000000000000000000000000A9
:10136000202310B583F31188104BD96818688A6858
:101370008468944215D3046863601C600124D860BB
:10138000002380F8244081F824308B691B689C6816
:10139000A242FBD95A68C1E9003211605960FEF7D8
:1013A0004FFF002383F3118810BD00BF50100020B1
:1013B00038B51A4B2022DC6882F31188426B00F1A9
:1013C00030052560A1626260146090F824204463B7
:1013D0000E2A13D00C224FF0010CD968186881F83E
:1013E0002420026853601A6080F824C0D860FEF799
:1013F00027FFA06A002383F3118838BD002182698A
:10140000856880F8241012689168A942FBD251685F
:10141000C0E9002108605060DCE700BF50100020E8
:1014200010B504464121FFF7C3FF42212046FFF7D4
:10143000BFFF43212046FFF7BBFF2046BDE8104019
:101440004421FFF7B5BF00BF00000000000000000E
:1014500010B52023044683F31188164A9368013B94
:10146000002B93600DDB002383F31188124BDA68A5
:1014700003F120018A4203D22178501CD8601170F8
:1014800010BD4FF0050E4FF0010C0C4B5068D968A1
:10149000C1E900208A620160186881F824E0516087
:1014A000026853601A6080F824C0D860FEF7C8FE56
:1014B000D9E700BF54120020341100205010002042
:1014C000202370B583F311881E4BD968CA6A01F1D5
:1014D0002C0C944518BF4FF0000E886213D191F880
:1014E00026202AB30F224FF0010C186881F824201F
:1014F0000268536080F824C01A60BDE87040D8606C
:10150000FEF79EBE2246146890699668CC6282F807
:1015100024E000688568B542FBD2456864451060E8
:1015200055602A604260EDD191F82620002AD9D179
:1015300091F825209207D5D1D1E9042002605060AE
:10154000D0E700BF501000200000000000000000A5
:10155000F8B50D4C2023E76883F311880326012595
:10156000E168206881F8246003685C6080F824509A
:101570002360E060FEF764FEBB6A002BF0D000231E
:1015800083F31188F8BD00BF501000200000000058
:101590002DE9F041174FFB6893F825305A0727D4FF
:1015A0004FF0200805260125134C07E0002383F3A4
:1015B0001188FB6893F825305B0719D488F31188EC
:1015C000A368013B002BA360F0DAF9686368386810
:1015D0008C62C1E90043196081F82460036861608E
:1015E0005F6080F824503B60F860FEF729FEDDE77D
:1015F000BDE8F081501000206012002000000000C3
:101600002DE9F04120274FF0010800260546184C2F
:10161000FFF7A6FEFFF7A4FEFFF7A2FE87F31188EF
:10162000E1682068D1F808C08368634513D3026875
:10163000546080F824808B692260E06081F8246027
:101640001B689A689445FBD95A68C1E90032116059
:101650005960FEF7F5FD86F311882B68E2680433C4
:101660002B6092F825305B07D2D5BDE8F08100BF32
:1016700050100020000000000000000000000000EA
:1016800038B50D46B0B104462860204610490EF02A
:10169000E5FB215C0444222912D020460C490EF0BF
:1016A000C1FB98B10023421C2A600370237823B148
:1016B000204638BD0C68002CE7D10024204638BDF8
:1016C000013420460EF07EFA0028EBD12860EDE7C9
:1016D00004FF0008000000000000000000000000FF
:1016E0000246034B03490448C3E908120EF030B820
:1016F00034110020B10A0008F8220108000000009F
:101700000246034B03490448C3E908120EF020B80F
:1017100034110020B10A0008F81D01080000000083
:10172000002101480CF0F4BB54120020000000001E
:1017300038B50125164B174CDA6817489168002315
:101740002944164A25600CF013FC0223144A236036
:1017500010600DF0ADFF134B1D689D4211D1AB68B9
:101760004BB9032323600DF0A3FF2B68AB4208D1D4
:101770009B6803B938BD40F201130B4AA380A260F5
:1017800038BD40F20113094AA380A26038BD00BFF2
:101790005010002034110020701200203142000847
:1017A000A01900205412002018FF000808FF0008AC
:1017B000704700BF000000000000000000000000B3
:1017C000704700BF000000000000000000000000A3
:1017D000FEE700BF00000000000000000000000065
:1017E000F8B5154D154F16491648174A05F17004FE
:1017F00081420DD90346043A52F8046F43F8046B52
:101800009942F9D84B1E1B1A23F0030304331844E2
:10181000874207D97A1E121A22F0030200210432ED
:101820000EF07EF9A54205D0D5E90420D5E90617CA
:101830001035DDE7F8BD00BF281E0108802E00200E
:10184000802E0020802E00209C3101080000000026
:1018500000207047000000000000000000000000B1
:101860004FF0010C70B50025468900EB8104E46857
:101870000CFA01FE4EEA060EA0F80AE0A069C0E9E3
:101880000152036033B1628A013B1344B3FBF2F3AC
:101890001FFA83FC084AA0F80CC052F8213023F448
:1018A000904323F0700383F4405343F4004343F028
:1018B000800342F8213070BD005C00400000000051
:1018C000436BD3F88C2410680178042900D070474A
:1018D000197A0229FBD14FF0010C00B55179B0F80B
:1018E0000AE00CFA01F212EA0E0F01D05DF804FBD7
:1018F000D3E9072C624506D04FF480735DF804EB02
:101900000432FFF7ADBF9B69002BEFD1F4E700BFB6
:1019100070B590F86430044613B1002380F8643049
:10192000BC4B04F174021B6D03F1804303F5C0430B
:1019300003EB01139B6803F1005303F540535B0075
:1019400003F11000194604330968834222F8021B90
:10195000F8D163689B6803B320469847E8B1E36E0B
:1019600094F87410B4F87A209A423CBF1346E266A9
:101970000A0600F1D780002B00F091801522202369
:1019800084F8642083F311880021D4E91A232046C7
:10199000FFF766FF81F3118870BD94F8741011F0A1
:1019A00060061CD194F8752001F07F0343EA0223FE
:1019B00040F20232934200F069814FD8B3F5807F44
:1019C00000F018812AD9B3F5817F00F02B81B3F59F
:1019D000407F04D194F87630012B00F0D28048F299
:1019E00080008C4963680A681D6822F4F04222F086
:1019F000400282F0100202430A600B6823F4904315
:101A000023F0700383F4805303430B6015B1062168
:101A10002046A847062384F8643070BD012B5BD0B4
:101A2000022B4BD194F9780094F87820002879485B
:101A300002F00F0250F82220C0F2938012F44052BC
:101A4000CDD0B2F5805F4FF002004FF0000200F001
:101A50009380714D2267C4E91A5083E7B3F5006F94
:101A600000F00C8140D9B3F5106F31D12378042BED
:101A700000F0918094F876304BB10421626884F8CC
:101A80007F302170136813B102212046984700234C
:101A9000C4E91A3394F8741023670B0652D40B224E
:101AA000202384F8642083F31188002320461A46FB
:101AB0001946FEF7C5FD81F3118870BD002B8ED14C
:101AC000022204F17C002367A0661346E26649E720
:101AD00040F60242934282D1022200204F4BC4E9D9
:101AE0001B20A36613463DE7B3F5A06F00F0C1804D
:101AF000A3F5C063012B3FF672AF626820465568BC
:101B0000B4F8783094F8762094F87710A847002835
:101B10003FF465AFD0E9003294F87410C4E91A2399
:101B200026671FE773B10922202384F8642083F31A
:101B300011880021D4E91A232046FEF781FD81F3A4
:101B4000118870BD1422202384F8642083F3118847
:101B5000002320461A461946FFF782FE81F31188BA
:101B600070BD12F030023FF43AAF102A4FF002007D
:101B70004FF000027FF46DAF294D2267C4E91A507F
:101B8000F0E6B4F87C30C4E91B6643F00203A666B5
:101B9000A4F87C3081E7202383F3118840210122BF
:101BA00048F28000A368C4E90566C4E90766C4E991
:101BB000096603F001132661A360C4F88410930042
:101BC00003F1804303F5B843196801320143082A41
:101BD00019601860F3D1002383F311880321626830
:101BE00084F87F3021701368002B3FF443AF204608
:101BF00098473FE794F87630012B7FF4F0AEB4F8C5
:101C00007C30C4E91B6623F00203A666A4F87C308E
:101C100043E700BF005C0040A4180108BC24010891
:101C2000D01B010894F87630002B7FF4D8AE94F8DE
:101C3000782012F00F0317D09B0003F1804303F5C7
:101C4000B84312F0800F1A683DD102F44052B2F549
:101C5000405F09D01A6822F4F04222F0400242F4B8
:101C6000204242F080021A600023C4E91A3323673D
:101C700013E7244BC4E91A6623670EE7012204F137
:101C80007F03A36626671346E2666BE694F8763018
:101C9000002B7FF4A4AE94F8783013F00F02E3D059
:101CA000194813F0800F50F822301DD123F49043CF
:101CB00023F0700383F4805343F4004343F0800324
:101CC00040F82230D0E702F03002302ACCD01A6837
:101CD00022F4F04222F0400282F0200242F400425C
:101CE00042F080021A60BFE723F4F04323F0400380
:101CF00083F0100343F4004343F0800340F82230A4
:101D0000B2E700BF11060008005C004000000000C0
:101D100038B590F864300446152B1FD8DFE803F07F
:101D20001F1E1E1E1E1E1F1E1E0B103E1E1E1E1ED2
:101D30001E1E1E1E1F1FC36EB0F87A20934234D39E
:101D40001422202384F8642083F311880023204682
:101D50001A461946FFF784FD81F3118838BD48F211
:101D600080001C4963680A681D6822F4F04222F072
:101D7000400282F0100202430A600B6823F4904391
:101D800023F0700383F4805303430B6015B10621E5
:101D90002046A847062384F8643038BD036F03B19A
:101DA0009847002384F8643038BDC268118AB3FBB9
:101DB000F1F201FB12310029C2D1202383F31188F3
:101DC0000B460A46FEF73CFC81F311880A2384F88F
:101DD000643038BD005C00400000000000000000DE
:101DE00008B5154B19689A6801F00E01114205D02B
:101DF000124A596093680BB1D0689847202383F347
:101E000011880F4B5B6813F4006302D183F31188D0
:101E100008BDEFF309834FF08072203BDA6183F352
:101E20000988084A1168D2688968926891428CBF13
:101E3000054A064A9A6108BD000002407811002058
:101E400000ED00E050100020630200086602000868
:101E5000164B10B51968DA69090901F00E01114233
:101E600006D013480A0104695A600CB14069A047C2
:101E7000202383F311880F4B5B6813F4006302D1B6
:101E800083F3118810BDEFF309834FF08072203B7C
:101E9000DA6183F30988084A1168D2688968926810
:101EA00091428CBF054A064A9A6110BD000002406B
:101EB0007811002000ED00E05010002063020008BF
:101EC00066020008000000000000000000000000A2
:101ED000164B10B519681A6B090A01F00E01114270
:101EE00006D013480A0284695A600CB1C069A04741
:101EF000202383F311880F4B5B6813F4006302D136
:101F000083F3118810BDEFF309834FF08072203BFB
:101F1000DA6183F30988084A1168D268896892688F
:101F200091428CBF054A064A9A6110BD00000240EA
:101F30007811002000ED00E050100020630200083E
:101F40006602000800000000000000000000000021
:101F5000164B10B519685A6C090B01F00E011142AD
:101F600006D013480A03046A5A600CB1406AA047BD
:101F7000202383F311880F4B5B6813F4006302D1B5
:101F800083F3118810BDEFF309834FF08072203B7B
:101F9000DA6183F30988084A1168D268896892680F
:101FA00091428CBF054A064A9A6110BD000002406A
:101FB0007811002000ED00E05010002063020008BE
:101FC00066020008000000000000000000000000A1
:101FD000164B10B519689A6D090C01F00E011142EB
:101FE00006D013480A04846A5A600CB1C06AA0473C
:101FF000202383F311880F4B5B6813F4006302D135
:1020000083F3118810BDEFF309834FF08072203BFA
:10201000DA6183F30988084A1168D268896892688E
:1020200091428CBF054A064A9A6110BD00000240E9
:102030007811002000ED00E050100020630200083D
:102040006602000800000000000000000000000020
:10205000164B10B51968DA6E090D01F00E01114228
:1020600006D013480A05046B5A600CB1406BA047B8
:10207000202383F311880F4B5B6813F4006302D1B4
:1020800083F3118810BDEFF309834FF08072203B7A
:10209000DA6183F30988084A1168D268896892680E
:1020A00091428CBF054A064A9A6110BD0000024069
:1020B0007811002000ED00E05010002063020008BD
:1020C00066020008000000000000000000000000A0
:1020D000174B10B51968D3F88020090E01F00E01D6
:1020E000114206D013480A06846B5A600CB1C06BCB
:1020F000A047202383F311880F4B5B6813F4006320
:1021000002D183F3118810BDEFF309834FF0807281
:10211000203BDA6183F30988084A1168D26889682C
:10212000926891428CBF064A064A9A6110BD00BF70
:10213000000002407811002000ED00E05010002067
:1021400063020008660200080000000000000000B2
:1021500008B5154B19689A6801F00E01114205D0B7
:10216000124A5960136C0BB1506C9847202383F3CB
:1021700011880F4B5B6813F4006302D183F311885D
:1021800008BDEFF309834FF08072203BDA6183F3DF
:102190000988084A1168D2688968926891428CBFA0
:1021A000054A064A9A6108BD0004024078110020E1
:1021B00000ED00E0501000206302000866020008F5
:1021C000164B10B51968DA69090901F00E011142C0
:1021D00006D013480A01846C5A600CB1C06CA04749
:1021E000202383F311880F4B5B6813F4006302D143
:1021F00083F3118810BDEFF309834FF08072203B09
:10220000DA6183F30988084A1168D268896892689C
:1022100091428CBF054A064A9A6110BD00040240F3
:102220007811002000ED00E050100020630200084B
:10223000660200080000000000000000000000002E
:10224000164B10B519681A6B090A01F00E011142FC
:1022500006D013480A02046D5A600CB1406DA047C5
:10226000202383F311880F4B5B6813F4006302D1C2
:1022700083F3118810BDEFF309834FF08072203B88
:10228000DA6183F30988084A1168D268896892681C
:1022900091428CBF054A064A9A6110BD0004024073
:1022A0007811002000ED00E05010002063020008CB
:1022B00066020008000000000000000000000000AE
:1022C000164B10B519685A6C090B01F00E0111423A
:1022D00006D013480A03846D5A600CB1C06DA04744
:1022E000202383F311880F4B5B6813F4006302D142
:1022F00083F3118810BDEFF309834FF08072203B08
:10230000DA6183F30988084A1168D268896892689B
:1023100091428CBF054A064A9A6110BD00040240F2
:102320007811002000ED00E050100020630200084A
:10233000660200080000000000000000000000002D
:10234000164B10B519689A6D090C01F00E01114277
:1023500006D013480A04046E5A600CB1406EA047C0
:10236000202383F311880F4B5B6813F4006302D1C1
:1023700083F3118810BDEFF309834FF08072203B87
:10238000DA6183F30988084A1168D268896892681B
:1023900091428CBF054A064A9A6110BD0004024072
:1023A0007811002000ED00E05010002063020008CA
:1023B00066020008000000000000000000000000AD
:1023C000202310B483F3118800211B481B4AC36BE0
:1023D000D16373B19A699C68C163996283F82410D0
:1023E00012689168A142FBD25168C3E900210B60D9
:1023F0005360002383F31188202383F31188104B4B
:102400005B6813F4006303D183F3118810BC704739
:10241000EFF309834FF08072203BDA6183F3098880
:10242000084A10BC1168D2688968926891428CBFD2
:10243000054A064A9A617047E8080020008001407A
:1024400000ED00E050100020630200086602000862
:102450002DE9F0474FF0804ADAF81030DAF80C2016
:102460001340DAB2D2439B07CAF810200BD42023C2
:1024700083F31188574B5B6813F400636AD183F3CD
:102480001188BDE8F087202383F311884FF00009FD
:10249000514E06F110074FF02008DAF82420B08BD7
:1024A000346992B2A168131A9BB245188B42ADB23F
:1024B00035D3D4E90032B58313605A60C4F8009074
:1024C0003369BB4208BFCAF80C9089F311882046D3
:1024D000D4E90331984788F311886369002BDCD075
:1024E000DAF8241089B24D1BADB2AB424BD332693E
:1024F000BA4251D091688B4204D912685B1A916834
:102500009942FAD34FF0FF30A36091682260CB1A52
:10251000516861600C60C2E90143B061BBE7BC4235
:1025200014D0CB1A4FF6FF718B4228BF0B46022BFB
:102530002CBFD218023292B2CAF83420DAF8243012
:10254000121A181A80B292B2904217D8002383F35D
:1025500011888CE7EFF309834FF08072203BDA613A
:1025600083F309881C4A1168D2688968926891428D
:102570008CBF1A4A1A4A9A61BDE8F087736B43F020
:1025800001037363E2E7736B326943F00203BA42FB
:1025900073631BD02B46ADE74FF6FF725B1B9A426D
:1025A00028BF1A46022A38BF022292B2B1830A44D7
:1025B000C4E9017300204FF08043022192B22760EA
:1025C000C6E904445A631861D960BFE702220023B8
:1025D000ECE700BF00ED00E05010002063020008AF
:1025E000660200080000000000000000000000007B
:1025F00000EB810370B5DD682B6803F00303032B48
:1026000058D14FF4C063334A6C69126D4FEA011E12
:1026100002F1804202F5C04202EB011C7CB10024B1
:10262000CCF804402C8AD0F88460013424F00104F2
:102630003444C0F8844043F020034EF80260AA6995
:10264000C2B16A8A3E2A02F1FF3439D844F001044B
:102650000134640204F47C44CCF80C400132D0F81C
:10266000844022F001022244C0F8842043F4005345
:10267000CCF808408A0002F1804202F5B8421068A6
:102680004404106848BF43F48043400648F2800089
:1026900047F6700448BF43F04003194321F47841E2
:1026A00021F0F00101431160116823404B400343C6
:1026B000136070BD002B0CBF4FF400730023A2E722
:1026C00044F01F0401346511034C44EA8524A4B28C
:1026D000C2E700BF005C00400080FFFF0000000078
:1026E0002DE9F04FAC4C85B0656C6B0500F15A815B
:1026F0002E0500F13481EC0408D5A74B9A6C100428
:1027000040F19E816FF48052A34B5A64A9050BD50A
:10271000DFF88892D9F80430DB680BB14846984757
:102720006FF400729C4B5A642A0440F1FE80DFF87B
:102730006C92DFF864A2CB4626E00121B9F808309C
:10274000BA68A94023EA0103A9F8083012B1294662
:102750005846904718F4004F11D0236818F4006FC2
:1027600023F4784323F0F00343F08003236067D021
:1027700009EB86067368294658465B689847DAF87D
:1027800044502B0440F1D18005F00F05AC0004F15A
:10279000804404F5B844D4F80080AE1C09EB8603ED
:1027A00018F0800F5F68D5D02268D7F814C022F4E3
:1027B000784222F0F002DCF80410DCF80C3042F42D
:1027C00000422260DCF800201944521ACCF80410B0
:1027D000B3D0398ADCF80800914228BF114618446A
:1027E000CCE90201DAF850302A0103F1804303F505
:1027F000C043D25803EB051302F1005202F54052D8
:102800005960520079B101394908131D03EB810168
:102810008E4600E00433944630F8021B9E451A466B
:10282000CCF80010F6D1236823F4F04323F04003E2
:1028300083F0300343F4004343F08003236089E7CF
:1028400040F2FE32DAF85030D7F818E003F1804356
:1028500003F5C04303EB05139868D96800F10050F5
:10286000DEF8083000F54050114202914FEA400076
:10287000C1F30908019300F0F7800146A8F10203B3
:102880005B0800F1040C03930CEB830C019B9A1C76
:102890000B461B68043102F8023C61454FEA1323E2
:1028A00002F1020202F8033CF2D1039B019A0133C8
:1028B00000EB830002EB43030193029B03F001034F
:1028C00013B10368019A1370DEF80820798A424434
:1028D000CEF80820DEF80420BEF80C304244CEF8D2
:1028E0000420DEF80020013B9BB2A2EB0802414528
:1028F000AEF80C30CEF8002000D81BBB012209EB4B
:1029000086067368AA40DC68B9F80A3023EA020335
:10291000A9F80A30002C3FF432AF29465846A047A8
:10292000DAF844502B043FF52FAF202383F31188AE
:102930001B4B5B6813F400636DD183F3118805B002
:10294000BDE8F08F236823F4904323F0700383F4F1
:10295000405343F4004343F0800323600FE76FF4D8
:10296000006005210C4BDFF834901A6C42F008022D
:102970001A64D9F80420586499F8003089F80010D6
:1029800089F88030136813B1042148469847002322
:10299000C9F80830AFE600BF005C0040C40F00205B
:1029A00000ED00E000266FF480610223DFF8BC90A8
:1029B00061642022314609F10C0089F80030C9F821
:1029C0007C60C9F808600DF0ABF8D9F8043089F8DC
:1029D0006460DB684FF0800CB3420CBF4FF41C47BF
:1029E0004FF41E474022224B266531466664484616
:1029F000C4F84CC02764C9F80C30C9F88420FFF72C
:102A0000F7FDD9F804301B68002B3FF471AE314656
:102A1000484698476CE6EFF309834FF08072203BFD
:102A2000DA6183F30988134A1168D2688968926869
:102A300091428CBF104A114A9A6105B0BDE8F08FEF
:102A40001A6CDFF8289022F008021A6499F88020A6
:102A5000D9F8043089F800201B68002B3FF452AEEF
:102A60000521484698474DE6434629E7C40F002014
:102A7000581B01085010002063020008660200087D
:102A80001B4A136843F00103136013689807FCD5D1
:102A900000201368164903F0F903136050604B6877
:102AA00013F00C0FFBD10B68114A43F480330B6019
:102AB00013689903FCD553680D4943F4E813536038
:102AC000136843F0807313600B689B01FCD51220E0
:102AD000084A094B4A6018604B68054A43F00203F4
:102AE0004B60536803F00C03082BFAD1704700BF0A
:102AF0000010024000641D000020024000000000A1
:102B00001F4930B40B6998420ED0036884689A68F4
:102B10000025224444682360C3E901424FF0FF339B
:102B200005608B6130BC70470B460024026843F897
:102B3000102F536004600A699A421CD04FF0804401
:102B400093688068898B03449360626A521A92B2D8
:102B50009342E7D9981A01280BD94FF6FF72934296
:102B600028BF134630BC4FF080420B449BB25363E6
:102B70007047931CF6E74FF08043DC60D2E700BF5C
:102B800050100020000000000000000000000000C5
:102B900070B51C4C4B1C0546E66886B021D01A4B1C
:102BA0000A460021CDE903364FF080430591596A6A
:102BB000684689B20BF0C4FC0122E168206881F804
:102BC000245003685C6080F824202360E060FDF7F7
:102BD00037FB009B13B16846FFF792FFB06A06B05F
:102BE00070BD0122206886F82450036831465C607D
:102BF00080F82420E0602360FDF722FBB06A06B075
:102C000070BD00BF501000204110000800000000FF
:102C1000F8B5202304460E4683F31188836A13B364
:102C20001E70D4E90A3201339342A36203D200201A
:102C300080F31188F8BDE2692369043A1A60E268FA
:102C4000D4E90610013AE260002203448B4223617A
:102C500028BF636AA26228BF2361236B002BE6D0E2
:102C600020469847E3E71546114F0AE06268294677
:102C7000C3E90042042013606360FFF789FF002866
:102C800008DBE36853B9237A7BB9FB68002DEDD1EB
:102C90004FF0FF30002383F31188F8BD2269E1690A
:102CA000131D0A44C4E90A32BAE76FF00100F1E7E4
:102CB0005010002000000000000000000000000094
:102CC0004FF0FF324430FFF7A3BF00BF0000000009
:102CD0004430FFF79DBF00BF00000000000000006F
:102CE000F8B52023044683F31188836A13B3C26ABC
:102CF00013F8016B9342A36204D2002383F311887B
:102D00003046F8BDE2686369013AE2600022E16999
:102D1000A2620B44A16963618B4224BF636A636151
:102D2000236B002BE9D020469847002383F31188BA
:102D30003046F8BD0D46124F0AE062682946C3E9E5
:102D40000042042013606360FFF722FF061ED4DBFD
:102D5000E3685BB9237A83B9FB68002DEDD14FF0AE
:102D6000FF36002383F311883046F8BD63691A6883
:102D700004331A44C4E90A32BAE76FF00106BCE72B
:102D800050100020000000000000000000000000C3
:102D90004FF0FF310C30FFF7A3BF00BF0000000071
:102DA0000C30FFF79DBF00BF0000000000000000D6
:102DB0002DE9F047202481460D4617461E4684F330
:102DC00011880024DFF81881D9F82810002941D093
:102DD000D9F82C20A7EB040A521A924528BF924634
:102DE000BAF1400F46D92B4601F1400AD1F800E074
:102DF000D1F804C08868CA6810315145C3F800E0B2
:102E0000C3F804C09860DA6003F11003EED1D9F87A
:102E10002830D9F82C204033934205F14005C9F8F9
:102E2000283004F1400434D2002383F31188BC42DB
:102E30001DD2202383F31188C6E7D9F80420314638
:102E4000C3E9009204201360C9F80430FFF7A0FE24
:102E5000002809DBD9F80C30D3BB99F808301BB92E
:102E6000D8F80C30002EE8D1002383F311882046D7
:102E7000BDE8F08728465246FDF7F8F9D9F8283022
:102E8000D9F82C20534493425544C9F8283054446F
:102E9000CAD3D9E90621D9F81430D9F80C000B446B
:102EA00093424FF00002C9F8143028BFD9F82430FB
:102EB00000F1FF3028BFC9F81430D9F83030C9F814
:102EC0000C00C9F82820002BAED048469847ABE745
:102ED000D9F814100A6804310A44C9E90A1279E7DA
:102EE0005010002000000000000000000000000062
:102EF0004FF0FF330C30FFF75BBF00BF0000000056
:102F00000C30FFF755BF00BF0000000000000000BC
:102F10002DE9F04720250446894617461E4685F3CD
:102F200011880025DFF8F080A06A00283AD0E26A14
:102F3000A7EB050A121A924528BF9246BAF1400F34
:102F400049463ED909F14009D1F800E0D1F804C062
:102F50008A68CB6810314945C0F800E0C0F804C069
:102F60008260C36000F11000EED1A36AE26A4033D0
:102F700093428946A36205F140052DD2002383F3D5
:102F80001188BD421AD2202383F31188CCE76268EE
:102F90003146C3E90042042013606360FFF7F8FD87
:102FA000002808DBE368002B2FD1237A1BB9D8F85F
:102FB0000C30002EEBD1002383F311882846BDE8A6
:102FC000F0875246FDF752F9A36AE26A53449342EE
:102FD000D144A3625544D1D3E2692369043A1A600B
:102FE000D4E906210B4493424FF00002236128BF2D
:102FF000636AE06828BF2361236B0138E060A26246
:10300000002BBBD020469847B8E72069E26902440C
:103010000430C4E90A028BE75010002000000000D1
:103020004FF0FF334430FFF773BF00BF00000000D4
:103030004430FFF76DBF00BF00000000000000003B
:103040002DE9F04140F24D4520260746164CBA6B5B
:10305000BB6C9A60DD60596B11F04502FBD011F03A
:10306000050F9A6319D15B6913EA040812D1C3F3FF
:103070004323042B0BD0053B022B0BD886F311887E
:1030800002210820FFF784FD88F31188DFE740461E
:10309000BDE8F0810120BDE8F0813846FDF798FBDE
:1030A0000120BDE8F08100BF08E0FFFD0000000046
:1030B00038B5202383F311880379022B12D004231F
:1030C00004460025037185F31188FFF7B9FF02223A
:1030D000A36C18B958601860227138BD5D601D601E
:1030E000227138BD002080F3118838BD0000000037
:1030F0002DE9F8430D461E46816A013B2B448B4265
:10310000044606D9436B012043F080036363BDE8A6
:10311000F88306230371930717462BD046B3C5EBFC
:10312000C552DFF86C90DFF86C802E4407EB422725
:1031300011E02946012342462046FEF751F8034696
:1031400007EB4520013573B94FF400724146FDF796
:103150008DF8B5420CD0A36C2046C3F82490FFF73D
:103160006FFF0028E5D0012005232371BDE8F88317
:103170000020F9E7836C064A5A62FFF761FF0028D6
:10318000F1D133463A4629462046FEF729F8EBE7C7
:1031900000366E01B8190020000000000000000099
:1031A0002DE9F0430C461E46816A013B23448B42C5
:1031B000054683B007D9436B012043F080036B635E
:1031C00003B0BDE8F08307230371930717462BD0A4
:1031D00046B3C4EBC452DFF87080DFF87090264429
:1031E00007EB422709E001232146424628461C44BA
:1031F000FEF74EF880B9B44214D04FF40072404646
:1032000007EB4421FDF732F8AB6C2846C3F8249055
:10321000FFF716FF0028E6D0012005232B7103B02D
:10322000BDE8F0830020F8E7836C084A5A62FFF794
:1032300007FF0028F0D133463A4621462846FEF7DC
:1032400027F80190E9E700BFB819002000366E01A9
:103250002DE9F0412F4F1D46836C82B05F6204461A
:1032600088461646FFF7ECFE676C002848D10F220F
:1032700040F22A31236C45F488607D684FEA960C51
:10328000C5F80C80C5F804C02B602B68DFF888C037
:1032900043F001032B60A36CC3F838C0D9639E626E
:1032A000DA62089A9A60D860596B11F04502FBD037
:1032B00011F0050F9A6326D15969184A01910A4005
:1032C000B2B10E22002620467C7B3F68A240596B9B
:1032D0007A602C6824F00F042C607A600E4A9A639E
:1032E000DE63DE62FDF774FA012002B0BDE8F08112
:1032F0000121204601AAFDF713FF0028F5D0676CD5
:10330000A36C7D68DDE72046FDF762FAD4E911730E
:103310007D68D6E700366E01FF07C00008E0FFFDBC
:1033200001212DE9F047DFF894A04FF02009CAF8F9
:10333000001089F311884FF08047214E786AD6E952
:103340000823801A80B2841843F100054FF000086A
:10335000C6E9084588F3118889F311880820FFF72A
:1033600017FC88F3118889F311887A6A92B288F37E
:10337000118805E07B6A9B1A9BB2B3F5FA6F1AD2EB
:1033800089F311887B6AD6E908011B1A9BB2A6460D
:103390001C18AC4641F10005C6E9084588F31188C0
:1033A000744575EB0C03E5D240F20113054AAAF807
:1033B0000430CAF80820BDE8F08700BF34110020AF
:1033C000501000202CFF000800000000000000004A
:1033D00001232DE9F0414FF08044374E2025336022
:1033E000D4F8248085F3118864210820FFF7D0FBEE
:1033F000002787F31188636A643BA3EB08039BB241
:10340000022B52D802233360D4F8248085F311882C
:10341000C8210820FFF7BCFB87F31188636AC83B0B
:10342000A3EB08039BB2022B3FD803233360D4F8ED
:10343000248085F31188C8210820FFF7A9FB87F3B2
:103440001188636AC83BA3EB08039BB2022B2CD8FC
:1034500004233360D4F8248085F311884FF4FA6193
:103460000820FFF795FB87F31188636AA3F5FA63D9
:10347000A3EB08039BB2022B17D805233360676ABE
:103480006437BFB285F31188616A791A89B211B1C4
:103490000820FFF77DFB002383F311884FF0804362
:1034A0005B6ADF1BBFB2022F04D940F20113034A4B
:1034B000B380B260BDE8F081341100203CFF000809
:1034C0000122F8B5374C384D2023E968226083F398
:1034D00011888B6B002B36D183F311882026EA6884
:1034E00086F31188936B002B3DD183F31188EA6832
:1034F00086F31188916B01313FD083F31188022349
:10350000642023600AF0B4FC38BBEF6886F31188AE
:10351000BE6B002E33D00023BB6383F31188E6B962
:103520002023ED6883F31188AB6B013308D04FF093
:10353000FF3364210B20AB62FFF72AFB00282CDB52
:103540000023AB6311E05A4223EA02008863134070
:10355000002181F31188002BC0D040F20113134ADF
:10356000A380A260F8BD0023936383F3118840F227
:1035700001130E4AA380A260F4E79363F5E74FF0CE
:10358000FF3364210A20BB62FFF702FB002801DB46
:10359000BE6BC0E786F31188C2E7002383F311886E
:1035A000F8BD00BF341100205010002050FF00086B
:1035B0002DE9F84F2027054687F3118801210820BF
:1035C000FFF7E6FA4FF0000A8AF3118887F31188B3
:1035D0004FF080435E6AB6B28AF311884FF0010B58
:1035E000D046204C05F1300918E00C23E168206832
:1035F00081F8243003685C6080F824B02360E060C8
:10360000FCF71EFE88F311884FF080435B6A0AF1D5
:10361000010A9B1B9BB2B3F5FA6F1BD2E36887F3D9
:1036200011886A6BC3F828B0C3E90092136095F85B
:1036300024206B630E2AD8D1AB69A96885F8248051
:103640001B689A688A42FBD25A682B606A601560D0
:103650005D60CAE700212846FDF7AAFE5046BDE896
:10366000F88F00BF50100020000000000000000094
:103670002DE9F04F89B00324B222836C04715A60A3
:103680001A6802AF22431A605A68202142F48072FD
:1036900005465A6081F3118814210820FFF778FA53
:1036A000002383F311884FF48062AC6CA360E26066
:1036B000636B1A06FCD580214FF4D5724FF48963F1
:1036C000A163A260E360616B11F04503FBD011F0D0
:1036D0000500A36310D1012263692A63C3F30323A6
:1036E000934246D0002302220120636023602A71A6
:1036F0001C37BD46BDE8F08F2846FDF769F800226B
:1037000040F27743AC6CA260E360616B11F045035B
:10371000FBD011F0050FA36340F082816269534B27
:103720001340002B00F0958002234FF0640A40F212
:1037300041484FF020094E4E2B63A660C4F80C8020
:10374000616B11F04503FBD011F0040BA3631CD196
:103750006369002BC0F29680BAF1010AC2D089F3E6
:10376000118814210820FFF713FA8BF31188AC6C31
:10377000E3E740F27743A060E360616B11F045033B
:10378000FBD011F0050FA36304D02846FDF720F805
:10379000AC6CA7E76269354B1340002BA2D1DFF870
:1037A000D4A06426DFF8C480DFF8CCB0DFF8CC907A
:1037B000002240F27743A260E360616B11F04503A1
:1037C000FBD011F0050FA363DFD1636913EA080F83
:1037D00088D140F26943C4F808A0E360616B11F03E
:1037E0004503FBD011F00402A363CED16369002B23
:1037F00048DB013E3FF476AF202383F311884FF07E
:1038000080417A61496ADBF80C301422384689B26B
:10381000C7E903930AF094FE08230122DBF80C1099
:10382000DBF8000081F824300368C3F804B0CBF85B
:10383000003080F82420CBF80C00FCF701FD3B6839
:1038400013B13846FFF75CF9002383F31188AC6CA1
:10385000AEE74FF480622B63A360E260636B1B06EC
:10386000FCD58023DFF818A0A3639AE708E0FFFDEA
:103870000080FFC00080FF50501000204110000861
:10388000000010805E0003D52B6B43F010032B6308
:10389000002240F2C243A260E360616B11F0450375
:1038A000FBD0A36311F03F037FF46FAF40F24342BC
:1038B000216AA960E169E960A169296161696961B9
:1038C000A360E260616B11F04503FBD011F0050FBE
:1038D000A3637FF45AAF40F2C9436269AA63A2604E
:1038E000E360616B11F04503FBD08806A3637FF4AE
:1038F0004CAF40F24743216AA961E169E961A169DE
:10390000296261696962A260E360616B11F045033D
:10391000FBD011F00500A3637FF437AF2B6B626916
:1039200003F00F03022B00F086806B6A6C469B0F3E
:1039300090B002AE79D0009006234022314628464E
:10394000FFF786FC002840F0B780BDF814305BBA62
:103950009B0700F1A6802B6BA546AC6C03F00F0310
:103960006268022B22F0FF0242F0010205F118000A
:10397000626076D0FCF7D4FDA8624FF400724FF479
:103980008A63A260E360616B11F04503FBD011F024
:10399000050FA3637FF4F9AE6269624B1340002BFD
:1039A0007FF4A0AE2B6B13F00E0F03F00F0240F06C
:1039B0008680EB6A1B78002B2ED0012B7FF492AE11
:1039C00040F277426368A96B23F4C05343F4006369
:1039D0006360A160E260616B11F04503FBD011F000
:1039E000050FA3637FF4D1AE62694E4B1340002BE9
:1039F0007FF478AE022240F24643A260E360616B3E
:103A000011F04503FBD011F0050FA3636DD162697E
:103A1000444B1340002B6BD1052300202B7167E62C
:103A20002846FCF7D5FEAC6C7EE62B6BA54603F072
:103A30000F03AC6C94E740F246433B4AA260E3605C
:103A4000616B11F04503FBD011F0050FA36351D159
:103A50006369636805F1180023F0FF0343F0010375
:103A600063606B6A002B85DA002408234FF4007230
:103A7000284605F14C010094FFF7EAFB002837D1F6
:103A800095F8223195F8230195F820111B0495F83B
:103A9000212103EB00630B4403EB0223AC6CAB620C
:103AA0006BE7224906230091402231462846FFF762
:103AB000CFFB00283FF44FAFA546AC6C12E6022ABC
:103AC0007FF410AEEB6A1B78012B23D0022B19D0A8
:103AD000002BA1D06368164A40F24643A260E3601F
:103AE000616B11F04503FBD08DE72846FCF770FEB3
:103AF000AC6CF7E52846FCF76BFE2B6BAC6C03F067
:103B00000F032DE763680B4A23F4C05343F480533B
:103B10006360E1E76368084A23F4C05343F4006339
:103B20006360D9E708E0FFFD0001B903F1FFFF8002
:103B30000000B7030002B7030001B7030000000054
:103B400010B5202386B083F3118800214FF0804305
:103B5000164C0591E268596A154889B2CDE903020D
:103B6000012268460AF0ECFC08230122E168206883
:103B700081F8243003685C6080F824202360E060D2
:103B8000FCF75EFB009B13B16846FEF7B9FF00230C
:103B900083F31188202282F311884FF08042506A0B
:103BA00083F3118880B206B010BD00BF5010002012
:103BB00041100008000000000000000000000000AC
:103BC00010B401244FF0000C0C4B1868D96802683F
:103BD000536080F824401A60D8608C688B6981F843
:103BE00024C01B689A68A242FBD85A6810BCC1E97D
:103BF000003211605960FCF723BB00BF5010002059
:103C000008B5202383F31188002282F3118883F3FF
:103C10001188EFF311825AB9EFF3058283F311880B
:103C2000EFF30583C3F3080333B1002383F3118853
:103C3000002383F3118808BD044B1A68DB6892687F
:103C40009B689A42F1D9FFF7BBFFEEE750100020C6
:103C5000012370B5494C86B02360EFF311836BB933
:103C6000EFF30583202383F31188EFF30583C3F378
:103C70000803002B77D0002383F31188022220232E
:103C8000226083F31188EFF3118262B9EFF30582AA
:103C900083F31188EFF30583C3F30803002B58D097
:103CA000002383F31188002383F311880323236007
:103CB000EFF3118313B9202383F31188EFF31183FA
:103CC00013B9202383F31188002383F3118804217F
:103CD0002022216082F31188EFF311820AB183F36D
:103CE0001188EFF3118313B1002383F311880521A9
:103CF000002220232160009283F31188009B6E46EE
:103D000013B13046FEF7FCFE00254FF080430595C9
:103D1000596A1B4A3046039289B2012204950AF07F
:103D20000FFC85F31188202686F311880A210820CC
:103D3000FEF72EFF85F3118886F31188009B85F32B
:103D4000118823B140F201130E4AA380A26006B08D
:103D500070BD0D4B1A68DB6892689B689A429FD9C8
:103D6000FFF72EFF9CE7084B1A68DB6892689B6898
:103D70009A4280D9FFF724FF7DE700BF341100206D
:103D8000013C000860FF0008501000200000000007
:103D900001212DE9F843294C294EE3682022D3F86C
:103DA0000880316008EB010582F311881F6C9A6866
:103DB000974238D0954236D81D6423689A68E368E4
:103DC0009B689A4201D9FFF7FBFE002383F3118819
:103DD000B8452AD1E3689A6895421DD10222326023
:103DE000202282F31188D3F840909A68914523D01D
:103DF000904521D81F6423689A68E3689B689A42BB
:103E000001D9FFF7DDFE002383F311884D450CD166
:103E1000E3689B68984504D040F20113094AB380D7
:103E2000B260BDE8F8839D60C6E740F20113064A20
:103E3000B380B260BDE8F8839F60DBE750100020DC
:103E40003411002098FF000874FF000800000000F3
:103E500002222DE9F8433A4D3A4EEB6832609C68F5
:103E600004EB020904F101082022C3F8089082F350
:103E700011881F6C9A68974244D0904542D8C3F885
:103E800040802B689A68EB689B689A4201D9FFF7DB
:103E900097FE002383F31188BC4236D1EB689A6801
:103EA000914539D11A6C90453CD10322E71C326010
:103EB000202282F31188D3F840909A68914537D038
:103EC000974235D81F642B689A68EB689B689A42C2
:103ED00001D9FFF775FE002383F31188C84514D17B
:103EE000EA6891688F4217D1126C974222D104215F
:103EF0002022316082F31188EA689460146483F3AD
:103F0000118807E0C3F80880B9E740F201130E4AB0
:103F1000B380B260BDE8F88340F201130B4AB3806E
:103F2000B260F7E740F20113094AB380B260F1E7EB
:103F30009F60C7E740F20113064AB380B260E9E729
:103F4000501000203411002074FF000898FF000872
:103F5000B4FF0008DCFF00080000000000000000C3
:103F600038B52023044683F3118815490B687BB1CB
:103F700000209A699D680860986283F8240012689E
:103F80009168A942FBD25168C3E900210B605360DC
:103F90000C4B1A68DB6892689B689A4201D9FFF75C
:103FA0000FFE002383F31188074BDA6803F1200129
:103FB0008A4203D22178501CD860117038BD00BFEE
:103FC000B41900205010002034110020000000001F
:103FD00010B5202484F3118864210820FEF7D8FD51
:103FE000002181F3118884F31188134A9368013307
:103FF0008B4293600CDD114B1A68DB6892689B68FA
:104000009A4201D9FFF7DCFD002383F3118810BD2C
:1040100013681C689869146062609C68996283F8F0
:10402000241000688268A242FBD24268C3E9000201
:1040300013604360DFE700BF5412002050100020DF
:1040400038B52025044685F3118864210820FEF741
:104050009FFD002383F3118885F31188A36B94F8E7
:10406000242043F001030A2AA36322D00B2A0CD098
:10407000124B1A68DB6892689B689A4201D9FFF775
:104080009FFD002383F3118838BDA26A32EA03033F
:10409000EED10022A369A168A26284F824201B68E3
:1040A0009A688A42FBD25A68C4E9003214605C60A4
:1040B000DEE7A26A1342ECD1DAE700BF501000201D
:1040C00030B4154D8268EB689C688162A2424FF063
:1040D000000113D99A6983F82410126891688C4200
:1040E000FBD301245168C3E900210B6053601946DA
:1040F000E86080F8244030BCFCF7A2B8836980F8FF
:1041000024101B6899688A42FBD930BC5A68C0E900
:10411000003210605860704750100020000000000E
:104120000122F8B53D4D20262A6086F311883C4CCB
:10413000A368013B002BA36044DB002383F31188B9
:1041400086F31188A36823BB83F3118802222023FE
:104150002A6083F31188A3680133002BA36021DD5B
:10416000002686F31188202787F31188A368012B86
:1041700020D186F311880323022129482B6009F0FE
:10418000C7FE87F31188A368022B13D186F3118829
:10419000F8BD40F2011223490023A960AA8083F3ED
:1041A0001188F8BD2068002103685C602360FFF778
:1041B00087FFD5E740F201131A4AAB80AA6086F365
:1041C0001188F8BD0520184B6168DF683C60796094
:1041D000BC620F6087F8240018686760D0F800C0E0
:1041E0003946CCF80430C3F800C080F82420D860E9
:1041F000FCF726F80023BA6A83F3118886F3118846
:10420000A368002BC5D183F31188002A9ED040F209
:104210000113064AAB80AA60F8BD00BF341100202C
:1042200054120020FCFF000850100020100001086C
:10423000202310B583F311881A4CA368013B002B8F
:10424000A36018DB002181F31188202383F31188F8
:10425000A36801338B42A36003DD002383F311883D
:1042600010BD206803685C602360FFF729FF00230E
:1042700083F3118810BD05204FF0010C0A4B6268D2
:10428000D9680C604A608C62116081F8240018685B
:104290006160026853601A6080F824C0D860FBF740
:1042A000CFFFCFE754120020501000200000000084
:1042B0002DE9F04720264FF00E094FF00108164F68
:1042C00010E00D2203682B635C6080F824208AF3E1
:1042D0001188846A86F311882146FFF7F1FE8AF37C
:1042E0001188BCB186F31188FD684FF0000A2C4696
:1042F00054F8300FA042E4D1386885F82490036860
:1043000029465F6080F82480F8603B60FBF798FFE7
:10431000286BD6E7BDE8F0875010002000000000B1
:10432000F0B5D0E9023400214FF0020C0126D0F89C
:1043300004E01C4A43F828ECD0F810E002F128050C
:1043400043F86CECD0F814E0006803F8226C03F832
:10435000231C03F824CC43F8404C43F8084C124F7C
:10436000D46A43E9041143F82C0C43F8385CA3F1F8
:104370003800A3F11801A3F11C05A3F16C0643F862
:1043800068EC43F84C7C43F8302C43F8344C43F849
:104390003C6C2060D06243E90751A3F1480043F828
:1043A000141CF0BD50100020510200080000000055
:1043B000202370B583F311881E4BD968CA6A01F1B6
:1043C0002C0C944518BF4FF0000E886213D191F861
:1043D00026202AB30F224FF0010C186881F8242000
:1043E0000268536080F824C01A60BDE87040D8604D
:1043F000FBF726BF2246146890699668CC6282F863
:1044000024E000688568B542FBD2456864451060C9
:1044100055602A604260EDD191F82620002AD9D15A
:1044200091F825209207D5D1D1E90420026050608F
:10443000D0E700BF50100020000000000000000086
:104440001E4B70B5D968CA6A01F12C0C624518BFC1
:104450004FF0000E886213D191F826202AB30F2264
:104460004FF0010C186881F824200268536080F82E
:1044700024C01A60BDE87040D860FBF7E1BE224658
:10448000146890699668CC6282F824E000688568B8
:10449000B542FBD245686445106055602A604260B1
:1044A000EDD191F82620002AD9D191F82520920744
:1044B000D5D1D1E9042002605060D0E7501000202F
:1044C000014B5B6883607047001000E00000000053
:1044D0000E4B0F4A5B68926881689B1A5B1A10B496
:1044E000D0E90342D21841690261426841F10001FA
:1044F0009342026804F1010488BF43609342C0E91B
:104500000234416110BC38BF03607047001000E006
:104510002811002000000000000000000000000042
:1045200083680133002B836000DD7047002103683E
:1045300010B41C689A69046060609868996283F896
:104540002410126891688142FBD2516810BCC3E903
:1045500000210B6053607047000000000000000065
:10456000202208B582F311888368002B0CDD084BEC
:104570001A68DB6892689B689A4201D9FFF720FBB2
:10458000002383F3118808BDFFF7CAFFEFE700BFE0
:10459000501000200000000000000000000000009B
:1045A0002DE9F0474FF00108002584B0764C01AEAC
:1045B0002027CDE90166C4F80080039587F31188B0
:1045C000039BAB4278DC85F31188022329463046F1
:1045D000236009F09DFC87F31188039BAB426BDCE1
:1045E00085F311880323DFF8A4912360D9F80C2008
:1045F000334691686648674A013909F0B9FC0423DB
:104600002360654B186087F31188039B013B002BE7
:1046100003936EDB85F3118887F31188039B002BCE
:1046200054DC85F3118805222023226083F311884E
:10463000039B002B40F39780D9F80020D9F80C3069
:1046400092689B689A4201D9FFF7BAFA002383F374
:104650001188202282F311880399994241DD83F366
:10466000118882F311880399012974D183F3118889
:104670000623236082F31188039B002B7FDDD9F88A
:104680000020D9F80C3092689B689A4201D9FFF754
:1046900097FA002383F31188202282F3118803996B
:1046A000994264DD83F3118882F31188039A012A09
:1046B00051D183F3118806E040F20113374AA380F9
:1046C000A26085F3118804B0BDE8F08740F20112C2
:1046D00032490023A160A28083F3118804B0BDE8B1
:1046E000F08740F201122E49A280A16083F3118865
:1046F000E9E70522D9F80CA0029BD9F80000CAF816
:104700000060CAF80430CAF82860C3F800A08AF82C
:1047100024200368CDF808A05146C3F8049080F81F
:104720002480C9F80030C9F80C00FBF789FDDAF8DD
:10473000282085F3118887F31188039B002BC5DCA3
:1047400085F31188002A3FF46EAF40F20113154A39
:10475000A380A260B7E740F201121349A280A160D2
:1047600083F31188AFE73046FFF7DAFE64E740F2E3
:1047700001120E49A280A16083F31188A3E730469D
:10478000FFF7CEFE7BE700BF341100205010002061
:104790007012002061450008A019002028000108BF
:1047A0004800010834000108540001082C000108E9
:1047B000F0B48368354CE168002B39D08D689A6875
:1047C000954207D993F824209D60062A45D0072AF0
:1047D00034D0E2B1034603E08A689D68954202D373
:1047E0001B689842F8D106255A68C1E90032116069
:1047F000012259608862206881F8245003685C6057
:1048000080F824202360E060F0BCFBF719BDD3E9F9
:1048100000673E60776083F824209A691268966882
:10482000AE42FBD21A6055685D602B605360D1E7E1
:10483000CB6BF0BCC0E90213C86370479D6A5F6828
:104840001E682A463E60776003E096689F68BE4215
:10485000E8D312689542F8D1E4E79D6A5F681E6864
:104860002A463E60776003E096689F68BE4202D3A6
:1048700012689542F8D156681A605E6033605360E2
:10488000AB688D689A68AA429CD3A3E750100020B9
:1048900010B5202484F311884FF496710820FEF798
:1048A00077F9002383F3118884F311880948FFF70F
:1048B0007FFF0848FCF7FCFB074B1A68DB6892682F
:1048C0009B689A4201D9FFF77BF9002383F3118893
:1048D00010BD00BF2808002050100020000000007C
:1048E00038B51F4C2023E56883F311880268C3683C
:1048F0008242EB632ED0296C4BB11A68934203D0ED
:104900009268914238BF1146DB68002BF5D1A9604F
:104910000368D96B1A6802605060C0E90231002157
:10492000D8639A69986883F8241012689168814264
:10493000FBD25168C3E900210B602068E168536035
:104940008B6882689A4201D9FFF73AF9002383F312
:10495000118838BD00239360002383F3118838BD8C
:1049600050100020000000000000000000000000C7
:1049700010B52023044683F311880A48FFF718FF77
:10498000002383F31188084BDA6803F120018A427F
:1049900003D22178501CD86011700248BDE8104045
:1049A000FFF79EBF1808002034110020000000000F
:1049B00010B5202386B083F3118800214FF0804387
:1049C000174C0591E268596A164889B2CDE903028D
:1049D0006422684609F0B4FD08230122E1682068DA
:1049E00081F8243003685C60236080F82420E06054
:1049F000FBF726FC009B13B16846FEF781F8002404
:104A000084F31188202383F311880748FFF7D0FE31
:104A100084F31188044806B0BDE81040FFF760BF7A
:104A2000501000204110000818080020000000006D
:104A30002DE9F0412024074684F311882048FFF730
:104A4000B7FE002383F3118884F311881D4E1E4D99
:104A5000F468D4F83C804046FCF72AFB2B46A5625C
:104A600003E09968A268914202D31B68AB42F8D177
:104A7000072001255A68F1682360626014605C6059
:104A800081F82400306803685E6080F82450336049
:104A9000F060FBF7D5FB4046FFF78AFE002383F367
:104AA00011880A4BDA6803F120018A4203D239786F
:104AB0005019D86011700248BDE8F041FFF710BFEF
:104AC0001808002050100020000800203411002099
:104AD0002DE9F0412024074684F311882748FFF789
:104AE00067FE002585F3118884F311882448FFF7B9
:104AF0005FFE85F3118884F31188224E224DF468FD
:104B0000D4F83C804046FCF7D3FA2B46A56203E07C
:104B10009968A268914202D31B68AB42F8D1072181
:104B200001255A682360626014605C60F468306834
:104B300084F82410036821465E6080F824503360B6
:104B4000F060FBF77DFBA36A013302D04046FFF71C
:104B50002FFE002383F311880C4BDA6803F1200148
:104B60008A4203D23978501CD86011700448FFF78C
:104B7000B7FEBDE8F0410148FFF7B2BE28080020AB
:104B800018080020501000200008002034110020D8
:104B900010B52023044683F311880A48FFF708FE66
:104BA000002383F31188084BDA6803F120018A425D
:104BB00003D22178501CD86011700248BDE8104023
:104BC000FFF78EBE280800203411002000000000EE
:104BD00002232DE9F047354D354CEA68236096688D
:104BE000344B06F101094946334A344809F0C0F90B
:104BF000334F06F1020A38605146324B324A33488D
:104C000009F0B6F903234FF020087860236088F399
:104C100011882F48FFF7CCFD002787F31188EB6838
:104C20009B689E423AD10423236088F31188C821EF
:104C30000820FDF7ADFF87F31188EB689B68994565
:104C40002CD10523236088F311882248FFF7B0FD9B
:104C500087F31188EB689B6899451FD10623236071
:104C600088F31188C8210820FDF792FF87F3118887
:104C7000EB689B689A4511D1072316482360FFF71C
:104C80002FFEEB689B68994508D1082310482360E4
:104C9000FFF726FEEB689B689E4204D040F20113AA
:104CA0000D4AA380A260BDE8F08700BF501000202D
:104CB0003411002068000108B1490008701200207A
:104CC000A01900206C00010891480008E0130020A2
:104CD00018080020280800207000010800000000CB
:104CE00002232DE9F0415A4E5A4DF2682027D2F89E
:104CF00008802B6087F31188574CA3684BB10023C1
:104D000083F3118840F20113544AAB80AA60BDE8D6
:104D1000F081F268D16BA260D463E16083F3118803
:104D200003222A6087F31188A268002A65D083F3E2
:104D30001188042320462B60FFF7D2FDA368002BC7
:104D400069D12268A2426CD105212960F168896885
:104D500088454CD10621296087F311889168002984
:104D6000CED1F368D86B9360DA63D06081F3118899
:104D700087F311889368002B5CD081F3118887F347
:104D80001188F768FB6B23B31A68D8689342F863FD
:104D90004DD0106818604360D06B9A60D860D363C0
:104DA0009068936982F824101B68D3F808C0844582
:104DB000FAD258681360506002605A60FB6B002B97
:104DC000E2D13B6C3268BB609268934201D2FEF73D
:104DD000F7FE002383F31188A368E3B92368A34295
:104DE0001FD10722F3682A609B6898458FD040F254
:104DF00001131B4AAB80AA6089E7F368D96BDC63B7
:104E0000C4E9023182F3118840F20113154AAB80E4
:104E1000AA60BDE8F08140F20113134AAB80AA609A
:104E200075E740F20113114AAB80AA606FE7996001
:104E30000346C4E7F168C86BCA63C2E9021083F392
:104E4000118840F20113074AAB80AA605FE700BFF8
:104E5000501000203411002018080020880001089C
:104E60007000010898000108A400010808FF00086C
:104E70000368984234D0F0B4002605E0BCF10B0F73
:104E800029D01B68984224D0DA680A43DA6011B14D
:104E90001A691142F5D0D3E90124956B92F824C028
:104EA0002C43BCF10A0F9463E8D1956A2C42E8D0F8
:104EB00094699768966282F824602468A568BD4268
:104EC000FBD21B6865689842C2E900452A606260AF
:104ED000DAD1F0BC7047956A35EA0404D1D1E7E72E
:104EE000704700BF0000000000000000000000004C
:104EF000F8B500EB81039C6ADCB105460E46202321
:104F000083F311880821201DFFF7B2FF05EB86030C
:104F1000D86843691B686BB9A26D616D91423AD044
:104F20003146284652F8043BFBF78AFB002383F303
:104F30001188F8BD226DA16D01322265226E04F147
:104F400044070A44E16DA2658A4228BFA26E616CE3
:104F500028BFA2658F42E0D04FF0000CD1F800E0EE
:104F6000C4F844E0CEF804708F69D1F808E0C1F8C5
:104F700028C081F824C03F68D7F808C0F445FAD2A9
:104F8000D7F804C00F60C1F804C0CCF800107960F5
:104F9000616D9142C4D1216D0029C1D0002BC5D0D3
:104FA000028A013A1340C1D13146284605F1740204
:104FB000FBF746FBBAE700BF00000000000000005E
:104FC000113138B550F8214094B1202383F3118872
:104FD000D4F88C241368527903EB8203DB689B6955
:104FE0005D6835B920460AF043FD002383F311883C
:104FF00038BD04216018FFF73BFFE369616A1D605B
:10500000A06AA26903448B42E36128BF236B02F1CB
:10501000010228BFE361E368A26104F10C029A4235
:10502000E0D000211868E06042609A69986899624F
:1050300083F82410126891688142FBD25168C3E959
:1050400000210B605360CDE700000000000000006D
:10505000F8B5052952D8DFE801F003516103035286
:10506000202383F31188674C237D1BB194F84C30C7
:10507000002B40D102216448FFF7FAFE0123E168CA
:1050800008308142237517D06FF0010C00270B46C2
:1050900009689A699E68E1604860C3F828C083F88F
:1050A000247012689568B542FBD255688142C3E905
:1050B00000252B605360EAD10123616C534884F8CA
:1050C0004C30814217D06FF0010C00270B46096865
:1050D0009A699E6861644860C3F828C083F82470A8
:1050E00012689568B542FBD255688142C3E9002534
:1050F0002B605360EAD1002383F31188F8BD20238D
:1051000083F311883F4C0121201DFFF7B1FE0023DE
:10511000237584F84C3083F31188F8BD05462023AD
:1051200083F3118800263A4A3A4B3B49354C0161DA
:105130000121C2E90066C2E90266C3E90066C3E96B
:105140000266FDF755FA354B354A28460221C3E978
:1051500000666A61C3E90266FDF74AFA204650F824
:105160000C1F236B8142C4E90733C4E90D66A661B5
:1051700016D06FF0010C0B4609689A699F68E160D0
:105180004860C3F828C083F8246012689568BD425F
:10519000FBD255688142C3E900252B605360EAD1F8
:1051A000D4E919230027616C1848C4E915338142FA
:1051B000C4E91B772265277516D06FF0010C0B46EA
:1051C00009689A699E6861644860C3F828C083F8DA
:1051D000247012689568B542FBD255688142C3E9D4
:1051E00000252B605360EAD100250748012184F88F
:1051F0004C50FFF73DFE04380AF03AFC85F3118865
:10520000F8BD00BF340B0020380B0020780B0020C5
:10521000F8110020081200207C1B01081812002041
:10522000A01B0108000000000000000000000000BA
:10523000202370B583F31188154C00211548FFF722
:1052400017FE2268E36892689B689A4201D9FEF7CC
:10525000B7FC002585F31188202686F31188642188
:105260000820FDF795FC85F3118886F311880A481C
:105270002946FFF7FDFD2268E36892689B689A4221
:1052800001D9FEF79DFC002383F3118870BD00BF98
:1052900050100020080800200C080020000000002A
:1052A0002DE9F041202304468846174683F31188F0
:1052B0002C4D00F1180609E0E0693946C3E90060A9
:1052C00003600420E361FDF763FC68B9237D83B9C3
:1052D000D4E900122369501AB3EBA00F10D1EB6888
:1052E000002FE9D14FF0FF30002383F31188BDE890
:1052F000F0816FF00100002383F31188BDE8F08195
:10530000A5680133281D8242226AA060C5F800808A
:1053100098BFA16004F120019142236111D00020C7
:1053200015689369256294686960906282F8240028
:105330001B689968A142FBD25968C2E900310A6032
:105340005A60084B1A68DB6892689B689A4207D9D2
:10535000FEF736FC0020002383F31188BDE8F081BE
:105360000020C1E7501000200000000000000000F5
:105370002DE9F04104460F469046254E00F12005E8
:105380000CE023698BB9606AF3684146C3E90050B9
:10539000036004206362FDF7FBFB20B9237D002B33
:1053A000EFD06FF00100BDE8F081E168013B0A1D1C
:1053B0000968E2603960616823618A4228BF226817
:1053C00004F1180128BFE260A269914211D00020C7
:1053D00015689369A56194686960906282F82400F9
:1053E0001B689968A142FBD25968C2E900310A6082
:1053F0005A60074B1A68DB6892689B689A4204D926
:10540000FEF7DEFB0020BDE8F0810020CBE700BF07
:10541000501000200000000000000000000000000C
:105420002DE9F843394ECF1D002818BF064620232A
:105430000D46FF0806F10C0883F311884046FFF77C
:10544000B7F9002383F311887368311D0BB918E095
:105450001346586803F10F0C2CF0070C421C03EBA9
:10546000C202ACF1080E724507D96446A2EB0C0CDF
:10547000B7EBEC0F4FEAEC0913D91A681946002A6A
:10548000E6D14046FFF72CFA34683CB10822F80018
:105490001146A047044608B140E902652046BDE830
:1054A000F883734518D3B84229D09E46013703EBE1
:1054B000C70404F10800121A1868D21043F8370024
:1054C00062600C6003F108044046CEE90065FFF716
:1054D00007FA2046BDE8F88303F10802AEEB0202AA
:1054E000D210B9455A60EFD9FA43186801370EEB6C
:1054F000C7014A444A604EF837001960E4E71C4689
:105500009E4654F8083B0B60DEE700BF5C110020AC
:10551000F0B5174687B008220D461E46FFF780FFFC
:105520000446C0B10C9B054404930D9B0295059362
:10553000CDE900700396202383F311886846FEF7B7
:10554000EFFE0123002180F825300446FEF7B8FD68
:10555000002383F31188204607B0F0BD000000004F
:10556000F8B550E902730733DB083D1D20220646DB
:1055700040F8043C0C37A0F1080482F31188384647
:10558000FFF716F9002383F311882B469D421A6812
:1055900001D0A34202D21AB1944201D31346F5E7D7
:1055A00046F8082C56F8042C1C6056F8081C0132EA
:1055B00004EBC20081420AD059684A1C03EBC202C4
:1055C000944211D03846BDE8F840FFF789B94868E1
:1055D000024446F8042C0A68596846F8082C4A1C0C
:1055E00003EBC2029442EDD156E9020201321144AA
:1055F000C3E900013846BDE8F840FFF771B900BFC4
:10560000D0E90432002113605A6081F3118890F8C8
:10561000253003F00303012B0DD0022B0AD1436C7C
:10562000026A202080F31188186810601A6081F3E4
:10563000118870477047006AFFF792BF00000000B2
:1056400038B51B4B20210446DA6881F3118890F8A5
:1056500024100F2911D04FF0090C0125C16A1160E7
:10566000D968C262186881F824C0026853601A6061
:1056700080F82450D860FAF7E3FD0022A56A82F38F
:105680001188202383F3118894F82630013B84F895
:105690002630636A03F0FF130F2B03D082F31188C7
:1056A000284638BD2046FFF7ABFF284638BD00BF6F
:1056B000501000200000000000000000000000006A
:1056C00001232DE9F047394C2027236087F3118807
:1056D000374E0025F268936B43F00703936385F31D
:1056E00011880223236008F0EBFB012845D108F064
:1056F000E7FB022841D108F0E3FB042880463CD1B7
:1057000087F31188F368D3F838909D6385F3118887
:10571000B9F1000F38D103232360FEF711FAF368C3
:1057200082469968234A0139234808F021FC234D19
:10573000C4F80080286008F0C3FB4FF080435B6A28
:10574000643BA3EB0A039BB2032B29D8012821D188
:1057500087F31188F3689E6BC3F8389089F311883A
:1057600096B905F1140455F8040B18B1FFF768FF5A
:1057700045F8046CAC42F6D104E040F20113104A43
:10578000A380A260BDE8F08740F201130D4AA38018
:10579000A260F7E740F201130B4AA380A260F1E791
:1057A00040F20113094AA380A260EBE73411002004
:1057B000501000204140000870120020A019002065
:1057C000B0000108C4000108D00001083CFF000837
:1057D0002DE9F8434FF00109364DDFF8DC80EA6827
:1057E000364B91683648374A0139C8F8009008F0BE
:1057F000BFFB354C2023206083F311880323EE6820
:10580000286886F824300368304F3146B7622B6031
:105810005D6080F824903E60E860FAF711FD002397
:10582000B66A83F311883B689BBB4EBB04F1140935
:1058300054F8040B18B1FFF703FF44F8046CA145BA
:10584000F6D102222023C8F8002083F311884FF0FC
:105850008044EA684FF4FA61656A032097623A600F
:10586000FDF796F9002383F31188636AA3F5FA63C1
:105870005B1B9BB2022B15D83B6853B901300FD08C
:1058800040F20113124AA8F80430C8F80820BDE815
:10589000F88340F201130F4AA8F80430C8F8082032
:1058A000BDE8F88340F201130B4AA8F80430C8F8A9
:1058B0000820F5E75010002034110020680001088E
:1058C00070120020613F0008A0190020B4190020C8
:1058D00010000108E40001083CFF0008000000007F
:1058E00070B50026064C04F1140554F8040B18B1E9
:1058F000FFF7A6FE44F8046CAC42F6D170BD00BFC1
:10590000A0190020000000000000000000000000BE
:1059100070B50026064C04F1140554F8040B18B1B8
:10592000FFF78EFE44F8046CAC42F6D170BD00BFA8
:10593000A01900200000000000000000000000008E
:1059400070B50026064C04F1140554F8040B18B188
:10595000FFF776FE44F8046CAC42F6D170BD00BF90
:10596000A01900200000000000000000000000005E
:105970002DE9F0410127524D20222F6082F311883A
:10598000504C0020E1688B6B43F005038B6380F380
:1059900011880223E6682B6082F31188B26B002A1B
:1059A00053D00023B36383F31188052A46D1202600
:1059B00086F31188E268916B936383F31188002961
:1059C00055D103232B60FEF7BBF8E36807469968BF
:1059D0003D4A01393D4808F0CBFA04232B603C4B8B
:1059E000D4F80C80186086F31188D8F83820002A83
:1059F0004AD00021C8F8381081F311884FF0804355
:105A00005B6A643BD81B80B2032837D8012A50D187
:105A1000202383F31188E3689E6B996381F31188D7
:105A20002EBB2B4C04F1140554F8040B18B1FFF7EE
:105A300007FE44F8046CA542F6D104E040F20113DD
:105A4000244AAB80AA60BDE8F0814FF0FF320A2300
:105A5000E1682068B26281F8243003685C602360EA
:105A600080F82470E060FAF7EBFBB26B99E740F244
:105A70000113194AAB80AA60BDE8F08140F201131E
:105A8000164AAB80AA60DEE70A234FF0FF360122F8
:105A9000E1682068C8F8286081F8243003685C60F9
:105AA000236080F82420E060FAF7CAFBD8F8382099
:105AB0009FE740F201130A4AAB80AA60C3E700BF28
:105AC00034110020501000204140000870120020C6
:105AD000A0190020F0000108C40001083CFF0008E4
